{
  "contractName": "UniswapV2Router02",
  "abi": [
    {
      "inputs": [
        {
          "internalType": "address",
          "name": "_factory",
          "type": "address"
        },
        {
          "internalType": "address",
          "name": "_WEXP",
          "type": "address"
        }
      ],
      "stateMutability": "nonpayable",
      "type": "constructor"
    },
    {
      "inputs": [],
      "name": "WEXP",
      "outputs": [
        {
          "internalType": "address",
          "name": "",
          "type": "address"
        }
      ],
      "stateMutability": "view",
      "type": "function",
      "constant": true
    },
    {
      "inputs": [],
      "name": "factory",
      "outputs": [
        {
          "internalType": "address",
          "name": "",
          "type": "address"
        }
      ],
      "stateMutability": "view",
      "type": "function",
      "constant": true
    },
    {
      "stateMutability": "payable",
      "type": "receive",
      "payable": true
    },
    {
      "inputs": [
        {
          "internalType": "address",
          "name": "tokenA",
          "type": "address"
        },
        {
          "internalType": "address",
          "name": "tokenB",
          "type": "address"
        },
        {
          "internalType": "uint256",
          "name": "amountADesired",
          "type": "uint256"
        },
        {
          "internalType": "uint256",
          "name": "amountBDesired",
          "type": "uint256"
        },
        {
          "internalType": "uint256",
          "name": "amountAMin",
          "type": "uint256"
        },
        {
          "internalType": "uint256",
          "name": "amountBMin",
          "type": "uint256"
        },
        {
          "internalType": "address",
          "name": "to",
          "type": "address"
        },
        {
          "internalType": "uint256",
          "name": "deadline",
          "type": "uint256"
        }
      ],
      "name": "addLiquidity",
      "outputs": [
        {
          "internalType": "uint256",
          "name": "amountA",
          "type": "uint256"
        },
        {
          "internalType": "uint256",
          "name": "amountB",
          "type": "uint256"
        },
        {
          "internalType": "uint256",
          "name": "liquidity",
          "type": "uint256"
        }
      ],
      "stateMutability": "nonpayable",
      "type": "function"
    },
    {
      "inputs": [
        {
          "internalType": "address",
          "name": "token",
          "type": "address"
        },
        {
          "internalType": "uint256",
          "name": "amountTokenDesired",
          "type": "uint256"
        },
        {
          "internalType": "uint256",
          "name": "amountTokenMin",
          "type": "uint256"
        },
        {
          "internalType": "uint256",
          "name": "amountEXPMin",
          "type": "uint256"
        },
        {
          "internalType": "address",
          "name": "to",
          "type": "address"
        },
        {
          "internalType": "uint256",
          "name": "deadline",
          "type": "uint256"
        }
      ],
      "name": "addLiquidityEXP",
      "outputs": [
        {
          "internalType": "uint256",
          "name": "amountToken",
          "type": "uint256"
        },
        {
          "internalType": "uint256",
          "name": "amountEXP",
          "type": "uint256"
        },
        {
          "internalType": "uint256",
          "name": "liquidity",
          "type": "uint256"
        }
      ],
      "stateMutability": "payable",
      "type": "function",
      "payable": true
    },
    {
      "inputs": [
        {
          "internalType": "address",
          "name": "tokenA",
          "type": "address"
        },
        {
          "internalType": "address",
          "name": "tokenB",
          "type": "address"
        },
        {
          "internalType": "uint256",
          "name": "liquidity",
          "type": "uint256"
        },
        {
          "internalType": "uint256",
          "name": "amountAMin",
          "type": "uint256"
        },
        {
          "internalType": "uint256",
          "name": "amountBMin",
          "type": "uint256"
        },
        {
          "internalType": "address",
          "name": "to",
          "type": "address"
        },
        {
          "internalType": "uint256",
          "name": "deadline",
          "type": "uint256"
        }
      ],
      "name": "removeLiquidity",
      "outputs": [
        {
          "internalType": "uint256",
          "name": "amountA",
          "type": "uint256"
        },
        {
          "internalType": "uint256",
          "name": "amountB",
          "type": "uint256"
        }
      ],
      "stateMutability": "nonpayable",
      "type": "function"
    },
    {
      "inputs": [
        {
          "internalType": "address",
          "name": "token",
          "type": "address"
        },
        {
          "internalType": "uint256",
          "name": "liquidity",
          "type": "uint256"
        },
        {
          "internalType": "uint256",
          "name": "amountTokenMin",
          "type": "uint256"
        },
        {
          "internalType": "uint256",
          "name": "amountEXPMin",
          "type": "uint256"
        },
        {
          "internalType": "address",
          "name": "to",
          "type": "address"
        },
        {
          "internalType": "uint256",
          "name": "deadline",
          "type": "uint256"
        }
      ],
      "name": "removeLiquidityEXP",
      "outputs": [
        {
          "internalType": "uint256",
          "name": "amountToken",
          "type": "uint256"
        },
        {
          "internalType": "uint256",
          "name": "amountEXP",
          "type": "uint256"
        }
      ],
      "stateMutability": "nonpayable",
      "type": "function"
    },
    {
      "inputs": [
        {
          "internalType": "address",
          "name": "tokenA",
          "type": "address"
        },
        {
          "internalType": "address",
          "name": "tokenB",
          "type": "address"
        },
        {
          "internalType": "uint256",
          "name": "liquidity",
          "type": "uint256"
        },
        {
          "internalType": "uint256",
          "name": "amountAMin",
          "type": "uint256"
        },
        {
          "internalType": "uint256",
          "name": "amountBMin",
          "type": "uint256"
        },
        {
          "internalType": "address",
          "name": "to",
          "type": "address"
        },
        {
          "internalType": "uint256",
          "name": "deadline",
          "type": "uint256"
        },
        {
          "internalType": "bool",
          "name": "approveMax",
          "type": "bool"
        },
        {
          "internalType": "uint8",
          "name": "v",
          "type": "uint8"
        },
        {
          "internalType": "bytes32",
          "name": "r",
          "type": "bytes32"
        },
        {
          "internalType": "bytes32",
          "name": "s",
          "type": "bytes32"
        }
      ],
      "name": "removeLiquidityWithPermit",
      "outputs": [
        {
          "internalType": "uint256",
          "name": "amountA",
          "type": "uint256"
        },
        {
          "internalType": "uint256",
          "name": "amountB",
          "type": "uint256"
        }
      ],
      "stateMutability": "nonpayable",
      "type": "function"
    },
    {
      "inputs": [
        {
          "internalType": "address",
          "name": "token",
          "type": "address"
        },
        {
          "internalType": "uint256",
          "name": "liquidity",
          "type": "uint256"
        },
        {
          "internalType": "uint256",
          "name": "amountTokenMin",
          "type": "uint256"
        },
        {
          "internalType": "uint256",
          "name": "amountEXPMin",
          "type": "uint256"
        },
        {
          "internalType": "address",
          "name": "to",
          "type": "address"
        },
        {
          "internalType": "uint256",
          "name": "deadline",
          "type": "uint256"
        },
        {
          "internalType": "bool",
          "name": "approveMax",
          "type": "bool"
        },
        {
          "internalType": "uint8",
          "name": "v",
          "type": "uint8"
        },
        {
          "internalType": "bytes32",
          "name": "r",
          "type": "bytes32"
        },
        {
          "internalType": "bytes32",
          "name": "s",
          "type": "bytes32"
        }
      ],
      "name": "removeLiquidityEXPWithPermit",
      "outputs": [
        {
          "internalType": "uint256",
          "name": "amountToken",
          "type": "uint256"
        },
        {
          "internalType": "uint256",
          "name": "amountEXP",
          "type": "uint256"
        }
      ],
      "stateMutability": "nonpayable",
      "type": "function"
    },
    {
      "inputs": [
        {
          "internalType": "address",
          "name": "token",
          "type": "address"
        },
        {
          "internalType": "uint256",
          "name": "liquidity",
          "type": "uint256"
        },
        {
          "internalType": "uint256",
          "name": "amountTokenMin",
          "type": "uint256"
        },
        {
          "internalType": "uint256",
          "name": "amountEXPMin",
          "type": "uint256"
        },
        {
          "internalType": "address",
          "name": "to",
          "type": "address"
        },
        {
          "internalType": "uint256",
          "name": "deadline",
          "type": "uint256"
        }
      ],
      "name": "removeLiquidityEXPSupportingFeeOnTransferTokens",
      "outputs": [
        {
          "internalType": "uint256",
          "name": "amountEXP",
          "type": "uint256"
        }
      ],
      "stateMutability": "nonpayable",
      "type": "function"
    },
    {
      "inputs": [
        {
          "internalType": "address",
          "name": "token",
          "type": "address"
        },
        {
          "internalType": "uint256",
          "name": "liquidity",
          "type": "uint256"
        },
        {
          "internalType": "uint256",
          "name": "amountTokenMin",
          "type": "uint256"
        },
        {
          "internalType": "uint256",
          "name": "amountEXPMin",
          "type": "uint256"
        },
        {
          "internalType": "address",
          "name": "to",
          "type": "address"
        },
        {
          "internalType": "uint256",
          "name": "deadline",
          "type": "uint256"
        },
        {
          "internalType": "bool",
          "name": "approveMax",
          "type": "bool"
        },
        {
          "internalType": "uint8",
          "name": "v",
          "type": "uint8"
        },
        {
          "internalType": "bytes32",
          "name": "r",
          "type": "bytes32"
        },
        {
          "internalType": "bytes32",
          "name": "s",
          "type": "bytes32"
        }
      ],
      "name": "removeLiquidityEXPWithPermitSupportingFeeOnTransferTokens",
      "outputs": [
        {
          "internalType": "uint256",
          "name": "amountEXP",
          "type": "uint256"
        }
      ],
      "stateMutability": "nonpayable",
      "type": "function"
    },
    {
      "inputs": [
        {
          "internalType": "uint256",
          "name": "amountIn",
          "type": "uint256"
        },
        {
          "internalType": "uint256",
          "name": "amountOutMin",
          "type": "uint256"
        },
        {
          "internalType": "address[]",
          "name": "path",
          "type": "address[]"
        },
        {
          "internalType": "address",
          "name": "to",
          "type": "address"
        },
        {
          "internalType": "uint256",
          "name": "deadline",
          "type": "uint256"
        }
      ],
      "name": "swapExactTokensForTokens",
      "outputs": [
        {
          "internalType": "uint256[]",
          "name": "amounts",
          "type": "uint256[]"
        }
      ],
      "stateMutability": "nonpayable",
      "type": "function"
    },
    {
      "inputs": [
        {
          "internalType": "uint256",
          "name": "amountOut",
          "type": "uint256"
        },
        {
          "internalType": "uint256",
          "name": "amountInMax",
          "type": "uint256"
        },
        {
          "internalType": "address[]",
          "name": "path",
          "type": "address[]"
        },
        {
          "internalType": "address",
          "name": "to",
          "type": "address"
        },
        {
          "internalType": "uint256",
          "name": "deadline",
          "type": "uint256"
        }
      ],
      "name": "swapTokensForExactTokens",
      "outputs": [
        {
          "internalType": "uint256[]",
          "name": "amounts",
          "type": "uint256[]"
        }
      ],
      "stateMutability": "nonpayable",
      "type": "function"
    },
    {
      "inputs": [
        {
          "internalType": "uint256",
          "name": "amountOutMin",
          "type": "uint256"
        },
        {
          "internalType": "address[]",
          "name": "path",
          "type": "address[]"
        },
        {
          "internalType": "address",
          "name": "to",
          "type": "address"
        },
        {
          "internalType": "uint256",
          "name": "deadline",
          "type": "uint256"
        }
      ],
      "name": "swapExactEXPForTokens",
      "outputs": [
        {
          "internalType": "uint256[]",
          "name": "amounts",
          "type": "uint256[]"
        }
      ],
      "stateMutability": "payable",
      "type": "function",
      "payable": true
    },
    {
      "inputs": [
        {
          "internalType": "uint256",
          "name": "amountOut",
          "type": "uint256"
        },
        {
          "internalType": "uint256",
          "name": "amountInMax",
          "type": "uint256"
        },
        {
          "internalType": "address[]",
          "name": "path",
          "type": "address[]"
        },
        {
          "internalType": "address",
          "name": "to",
          "type": "address"
        },
        {
          "internalType": "uint256",
          "name": "deadline",
          "type": "uint256"
        }
      ],
      "name": "swapTokensForExactEXP",
      "outputs": [
        {
          "internalType": "uint256[]",
          "name": "amounts",
          "type": "uint256[]"
        }
      ],
      "stateMutability": "nonpayable",
      "type": "function"
    },
    {
      "inputs": [
        {
          "internalType": "uint256",
          "name": "amountIn",
          "type": "uint256"
        },
        {
          "internalType": "uint256",
          "name": "amountOutMin",
          "type": "uint256"
        },
        {
          "internalType": "address[]",
          "name": "path",
          "type": "address[]"
        },
        {
          "internalType": "address",
          "name": "to",
          "type": "address"
        },
        {
          "internalType": "uint256",
          "name": "deadline",
          "type": "uint256"
        }
      ],
      "name": "swapExactTokensForEXP",
      "outputs": [
        {
          "internalType": "uint256[]",
          "name": "amounts",
          "type": "uint256[]"
        }
      ],
      "stateMutability": "nonpayable",
      "type": "function"
    },
    {
      "inputs": [
        {
          "internalType": "uint256",
          "name": "amountOut",
          "type": "uint256"
        },
        {
          "internalType": "address[]",
          "name": "path",
          "type": "address[]"
        },
        {
          "internalType": "address",
          "name": "to",
          "type": "address"
        },
        {
          "internalType": "uint256",
          "name": "deadline",
          "type": "uint256"
        }
      ],
      "name": "swapEXPForExactTokens",
      "outputs": [
        {
          "internalType": "uint256[]",
          "name": "amounts",
          "type": "uint256[]"
        }
      ],
      "stateMutability": "payable",
      "type": "function",
      "payable": true
    },
    {
      "inputs": [
        {
          "internalType": "uint256",
          "name": "amountIn",
          "type": "uint256"
        },
        {
          "internalType": "uint256",
          "name": "amountOutMin",
          "type": "uint256"
        },
        {
          "internalType": "address[]",
          "name": "path",
          "type": "address[]"
        },
        {
          "internalType": "address",
          "name": "to",
          "type": "address"
        },
        {
          "internalType": "uint256",
          "name": "deadline",
          "type": "uint256"
        }
      ],
      "name": "swapExactTokensForTokensSupportingFeeOnTransferTokens",
      "outputs": [],
      "stateMutability": "nonpayable",
      "type": "function"
    },
    {
      "inputs": [
        {
          "internalType": "uint256",
          "name": "amountOutMin",
          "type": "uint256"
        },
        {
          "internalType": "address[]",
          "name": "path",
          "type": "address[]"
        },
        {
          "internalType": "address",
          "name": "to",
          "type": "address"
        },
        {
          "internalType": "uint256",
          "name": "deadline",
          "type": "uint256"
        }
      ],
      "name": "swapExactEXPForTokensSupportingFeeOnTransferTokens",
      "outputs": [],
      "stateMutability": "payable",
      "type": "function",
      "payable": true
    },
    {
      "inputs": [
        {
          "internalType": "uint256",
          "name": "amountIn",
          "type": "uint256"
        },
        {
          "internalType": "uint256",
          "name": "amountOutMin",
          "type": "uint256"
        },
        {
          "internalType": "address[]",
          "name": "path",
          "type": "address[]"
        },
        {
          "internalType": "address",
          "name": "to",
          "type": "address"
        },
        {
          "internalType": "uint256",
          "name": "deadline",
          "type": "uint256"
        }
      ],
      "name": "swapExactTokensForEXPSupportingFeeOnTransferTokens",
      "outputs": [],
      "stateMutability": "nonpayable",
      "type": "function"
    },
    {
      "inputs": [
        {
          "internalType": "uint256",
          "name": "amountA",
          "type": "uint256"
        },
        {
          "internalType": "uint256",
          "name": "reserveA",
          "type": "uint256"
        },
        {
          "internalType": "uint256",
          "name": "reserveB",
          "type": "uint256"
        }
      ],
      "name": "quote",
      "outputs": [
        {
          "internalType": "uint256",
          "name": "amountB",
          "type": "uint256"
        }
      ],
      "stateMutability": "pure",
      "type": "function",
      "constant": true
    },
    {
      "inputs": [
        {
          "internalType": "uint256",
          "name": "amountIn",
          "type": "uint256"
        },
        {
          "internalType": "uint256",
          "name": "reserveIn",
          "type": "uint256"
        },
        {
          "internalType": "uint256",
          "name": "reserveOut",
          "type": "uint256"
        }
      ],
      "name": "getAmountOut",
      "outputs": [
        {
          "internalType": "uint256",
          "name": "amountOut",
          "type": "uint256"
        }
      ],
      "stateMutability": "pure",
      "type": "function",
      "constant": true
    },
    {
      "inputs": [
        {
          "internalType": "uint256",
          "name": "amountOut",
          "type": "uint256"
        },
        {
          "internalType": "uint256",
          "name": "reserveIn",
          "type": "uint256"
        },
        {
          "internalType": "uint256",
          "name": "reserveOut",
          "type": "uint256"
        }
      ],
      "name": "getAmountIn",
      "outputs": [
        {
          "internalType": "uint256",
          "name": "amountIn",
          "type": "uint256"
        }
      ],
      "stateMutability": "pure",
      "type": "function",
      "constant": true
    },
    {
      "inputs": [
        {
          "internalType": "uint256",
          "name": "amountIn",
          "type": "uint256"
        },
        {
          "internalType": "address[]",
          "name": "path",
          "type": "address[]"
        }
      ],
      "name": "getAmountsOut",
      "outputs": [
        {
          "internalType": "uint256[]",
          "name": "amounts",
          "type": "uint256[]"
        }
      ],
      "stateMutability": "view",
      "type": "function",
      "constant": true
    },
    {
      "inputs": [
        {
          "internalType": "uint256",
          "name": "amountOut",
          "type": "uint256"
        },
        {
          "internalType": "address[]",
          "name": "path",
          "type": "address[]"
        }
      ],
      "name": "getAmountsIn",
      "outputs": [
        {
          "internalType": "uint256[]",
          "name": "amounts",
          "type": "uint256[]"
        }
      ],
      "stateMutability": "view",
      "type": "function",
      "constant": true
    }
  ],
  "bytecode": "0x60c060405234801561001057600080fd5b50604051620046e7380380620046e78339818101604052604081101561003557600080fd5b5080516020909101516001600160601b0319606092831b8116608052911b1660a05260805160601c60a05160601c614562620001856000398061015f5280610cf95280610d345280610e145280610f695280611043528061110b528061165352806116a952806116dd528061175152806118e75280611a745280611b615280611d8e5280611e425280611f2552806122d25280612422528061256852806125f05280612797528061282c52806128a05280612c3d5280612d805280612e08525080610ec352806110da528061113752806112725280611349528061168752806119755280611b3f5280611c945280611fb352806120b252806122b052806123b852806124b55280612622528061272b52806128d25280612b255280612cd05280612e3a528061351c52806136925280613b075280613b3d5280613ce85280613da15280613e5452506145626000f3fe60806040526004361061014f5760003560e01c80638803dbee116100b6578063c45a01551161006f578063c45a0155146109df578063c7f4a015146109f4578063d06ca61f14610a78578063e87834fd14610b2d578063e8e3370014610bb1578063ff110a4414610c1357610188565b80638803dbee1461075a578063932c34db146107f0578063ad615dec14610843578063b2512df014610879578063baa2abde1461090f578063c221000b1461096c57610188565b806338ed17391161010857806338ed17391461048b5780635c11d79514610521578063652a4e7d146105b75780637298f0e01461061b57806385f8c259146106b1578063874ed5ca146106e757610188565b8063054d50d41461018d57806309850ce4146101d55780630b443598146102415780631f00ca74146102d7578063216b10f9146103dc5780632195995c1461040d57610188565b3661018857336001600160a01b037f0000000000000000000000000000000000000000000000000000000000000000161461018657fe5b005b600080fd5b34801561019957600080fd5b506101c3600480360360608110156101b057600080fd5b5080359060208101359060400135610c97565b60408051918252519081900360200190f35b3480156101e157600080fd5b50610228600480360360c08110156101f857600080fd5b506001600160a01b0381358116916020810135916040820135916060810135916080820135169060a00135610cac565b6040805192835260208301919091528051918290030190f35b34801561024d57600080fd5b50610186600480360360a081101561026457600080fd5b813591602081013591810190606081016040820135600160201b81111561028a57600080fd5b82018360208201111561029c57600080fd5b803590602001918460208302840111600160201b831117156102bd57600080fd5b91935091506001600160a01b038135169060200135610dc6565b3480156102e357600080fd5b5061038c600480360360408110156102fa57600080fd5b81359190810190604081016020820135600160201b81111561031b57600080fd5b82018360208201111561032d57600080fd5b803590602001918460208302840111600160201b8311171561034e57600080fd5b9190808060200260200160405190810160405280939291908181526020018383602002808284376000920191909152509295506110d3945050505050565b60408051602080825283518183015283519192839290830191858101910280838360005b838110156103c85781810151838201526020016103b0565b505050509050019250505060405180910390f35b3480156103e857600080fd5b506103f1611109565b604080516001600160a01b039092168252519081900360200190f35b34801561041957600080fd5b50610228600480360361016081101561043157600080fd5b506001600160a01b038135811691602081013582169160408201359160608101359160808201359160a08101359091169060c08101359060e081013515159060ff610100820135169061012081013590610140013561112d565b34801561049757600080fd5b5061038c600480360360a08110156104ae57600080fd5b813591602081013591810190606081016040820135600160201b8111156104d457600080fd5b8201836020820111156104e657600080fd5b803590602001918460208302840111600160201b8311171561050757600080fd5b91935091506001600160a01b038135169060200135611227565b34801561052d57600080fd5b50610186600480360360a081101561054457600080fd5b813591602081013591810190606081016040820135600160201b81111561056a57600080fd5b82018360208201111561057c57600080fd5b803590602001918460208302840111600160201b8311171561059d57600080fd5b91935091506001600160a01b0381351690602001356113f6565b6105fd600480360360c08110156105cd57600080fd5b506001600160a01b0381358116916020810135916040820135916060810135916080820135169060a00135611604565b60408051938452602084019290925282820152519081900360600190f35b34801561062757600080fd5b5061038c600480360360a081101561063e57600080fd5b813591602081013591810190606081016040820135600160201b81111561066457600080fd5b82018360208201111561067657600080fd5b803590602001918460208302840111600160201b8311171561069757600080fd5b91935091506001600160a01b038135169060200135611897565b3480156106bd57600080fd5b506101c3600480360360608110156106d457600080fd5b5080359060208101359060400135611b28565b3480156106f357600080fd5b50610228600480360361014081101561070b57600080fd5b506001600160a01b0381358116916020810135916040820135916060810135916080820135169060a08101359060c081013515159060ff60e08201351690610100810135906101200135611b35565b34801561076657600080fd5b5061038c600480360360a081101561077d57600080fd5b813591602081013591810190606081016040820135600160201b8111156107a357600080fd5b8201836020820111156107b557600080fd5b803590602001918460208302840111600160201b831117156107d657600080fd5b91935091506001600160a01b038135169060200135611c49565b3480156107fc57600080fd5b506101c3600480360360c081101561081357600080fd5b506001600160a01b0381358116916020810135916040820135916060810135916080820135169060a00135611d42565b34801561084f57600080fd5b506101c36004803603606081101561086657600080fd5b5080359060208101359060400135611ec8565b34801561088557600080fd5b5061038c600480360360a081101561089c57600080fd5b813591602081013591810190606081016040820135600160201b8111156108c257600080fd5b8201836020820111156108d457600080fd5b803590602001918460208302840111600160201b831117156108f557600080fd5b91935091506001600160a01b038135169060200135611ed5565b34801561091b57600080fd5b50610228600480360360e081101561093257600080fd5b506001600160a01b038135811691602081013582169160408201359160608101359160808201359160a08101359091169060c00135612064565b34801561097857600080fd5b506101c3600480360361014081101561099057600080fd5b506001600160a01b0381358116916020810135916040820135916060810135916080820135169060a08101359060c081013515159060ff60e082013516906101008101359061012001356122a8565b3480156109eb57600080fd5b506103f16123b6565b61038c60048036036080811015610a0a57600080fd5b81359190810190604081016020820135600160201b811115610a2b57600080fd5b820183602082011115610a3d57600080fd5b803590602001918460208302840111600160201b83111715610a5e57600080fd5b91935091506001600160a01b0381351690602001356123da565b348015610a8457600080fd5b5061038c60048036036040811015610a9b57600080fd5b81359190810190604081016020820135600160201b811115610abc57600080fd5b820183602082011115610ace57600080fd5b803590602001918460208302840111600160201b83111715610aef57600080fd5b919080806020026020016040519081016040528093929190818152602001838360200280828437600092019190915250929550612724945050505050565b61018660048036036080811015610b4357600080fd5b81359190810190604081016020820135600160201b811115610b6457600080fd5b820183602082011115610b7657600080fd5b803590602001918460208302840111600160201b83111715610b9757600080fd5b91935091506001600160a01b038135169060200135612751565b348015610bbd57600080fd5b506105fd6004803603610100811015610bd557600080fd5b506001600160a01b038135811691602081013582169160408201359160608101359160808201359160a08101359160c0820135169060e00135612ac2565b61038c60048036036080811015610c2957600080fd5b81359190810190604081016020820135600160201b811115610c4a57600080fd5b820183602082011115610c5c57600080fd5b803590602001918460208302840111600160201b83111715610c7d57600080fd5b91935091506001600160a01b038135169060200135612bf5565b6000610ca4848484612f6e565b949350505050565b6000808242811015610cf3576040805162461bcd60e51b8152602060048201526018602482015260008051602061450d833981519152604482015290519081900360640190fd5b610d22897f00000000000000000000000000000000000000000000000000000000000000008a8a8a308a612064565b9093509150610d32898685613046565b7f00000000000000000000000000000000000000000000000000000000000000006001600160a01b0316632e1a7d4d836040518263ffffffff1660e01b815260040180828152602001915050600060405180830381600087803b158015610d9857600080fd5b505af1158015610dac573d6000803e3d6000fd5b50505050610dba85836131b0565b50965096945050505050565b8042811015610e0a576040805162461bcd60e51b8152602060048201526018602482015260008051602061450d833981519152604482015290519081900360640190fd5b6001600160a01b037f00000000000000000000000000000000000000000000000000000000000000001685856000198101818110610e4457fe5b905060200201356001600160a01b03166001600160a01b031614610e9d576040805162461bcd60e51b815260206004820152601d602482015260008051602061444d833981519152604482015290519081900360640190fd5b610f2785856000818110610ead57fe5b905060200201356001600160a01b031633610f217f000000000000000000000000000000000000000000000000000000000000000089896000818110610eef57fe5b905060200201356001600160a01b03168a8a6001818110610f0c57fe5b905060200201356001600160a01b03166132a8565b8a613368565b610f658585808060200260200160405190810160405280939291908181526020018383602002808284376000920191909152503092506134c5915050565b60007f00000000000000000000000000000000000000000000000000000000000000006001600160a01b03166370a08231306040518263ffffffff1660e01b815260040180826001600160a01b0316815260200191505060206040518083038186803b158015610fd457600080fd5b505afa158015610fe8573d6000803e3d6000fd5b505050506040513d6020811015610ffe57600080fd5b50519050868110156110415760405162461bcd60e51b815260040180806020018281038252602b815260200180614493602b913960400191505060405180910390fd5b7f00000000000000000000000000000000000000000000000000000000000000006001600160a01b0316632e1a7d4d826040518263ffffffff1660e01b815260040180828152602001915050600060405180830381600087803b1580156110a757600080fd5b505af11580156110bb573d6000803e3d6000fd5b505050506110c984826131b0565b5050505050505050565b60606111007f000000000000000000000000000000000000000000000000000000000000000084846137d4565b90505b92915050565b7f000000000000000000000000000000000000000000000000000000000000000081565b600080600061115d7f00000000000000000000000000000000000000000000000000000000000000008f8f6132a8565b905060008761116c578c611170565b6000195b6040805163d505accf60e01b815233600482015230602482015260448101839052606481018c905260ff8a16608482015260a4810189905260c4810188905290519192506001600160a01b0384169163d505accf9160e48082019260009290919082900301818387803b1580156111e657600080fd5b505af11580156111fa573d6000803e3d6000fd5b5050505061120d8f8f8f8f8f8f8f612064565b809450819550505050509b509b9950505050505050505050565b6060814281101561126d576040805162461bcd60e51b8152602060048201526018602482015260008051602061450d833981519152604482015290519081900360640190fd5b6112cb7f00000000000000000000000000000000000000000000000000000000000000008988888080602002602001604051908101604052809392919081815260200183836020028082843760009201919091525061392192505050565b915086826001845103815181106112de57fe5b602002602001015110156113235760405162461bcd60e51b815260040180806020018281038252602b815260200180614493602b913960400191505060405180910390fd5b6113ac8686600081811061133357fe5b905060200201356001600160a01b0316336113927f00000000000000000000000000000000000000000000000000000000000000008a8a600081811061137557fe5b905060200201356001600160a01b03168b8b6001818110610f0c57fe5b8560008151811061139f57fe5b6020026020010151613368565b6113eb82878780806020026020016040519081016040528093929190818152602001838360200280828437600092019190915250899250613a58915050565b509695505050505050565b804281101561143a576040805162461bcd60e51b8152602060048201526018602482015260008051602061450d833981519152604482015290519081900360640190fd5b61144a85856000818110610ead57fe5b60008585600019810181811061145c57fe5b905060200201356001600160a01b03166001600160a01b03166370a08231856040518263ffffffff1660e01b815260040180826001600160a01b0316815260200191505060206040518083038186803b1580156114b857600080fd5b505afa1580156114cc573d6000803e3d6000fd5b505050506040513d60208110156114e257600080fd5b505160408051602088810282810182019093528882529293506115249290918991899182918501908490808284376000920191909152508892506134c5915050565b866115c7828888600019810181811061153957fe5b905060200201356001600160a01b03166001600160a01b03166370a08231886040518263ffffffff1660e01b815260040180826001600160a01b0316815260200191505060206040518083038186803b15801561159557600080fd5b505afa1580156115a9573d6000803e3d6000fd5b505050506040513d60208110156115bf57600080fd5b505190613c88565b10156110c95760405162461bcd60e51b815260040180806020018281038252602b815260200180614493602b913960400191505060405180910390fd5b6000806000834281101561164d576040805162461bcd60e51b8152602060048201526018602482015260008051602061450d833981519152604482015290519081900360640190fd5b61167b8a7f00000000000000000000000000000000000000000000000000000000000000008b348c8c613cd8565b909450925060006116cd7f00000000000000000000000000000000000000000000000000000000000000008c7f00000000000000000000000000000000000000000000000000000000000000006132a8565b90506116db8b338388613368565b7f00000000000000000000000000000000000000000000000000000000000000006001600160a01b031663d0e30db0856040518263ffffffff1660e01b81526004016000604051808303818588803b15801561173657600080fd5b505af115801561174a573d6000803e3d6000fd5b50505050507f00000000000000000000000000000000000000000000000000000000000000006001600160a01b031663a9059cbb82866040518363ffffffff1660e01b815260040180836001600160a01b0316815260200182815260200192505050602060405180830381600087803b1580156117c657600080fd5b505af11580156117da573d6000803e3d6000fd5b505050506040513d60208110156117f057600080fd5b50516117f857fe5b806001600160a01b0316636a627842886040518263ffffffff1660e01b815260040180826001600160a01b03168152602001915050602060405180830381600087803b15801561184757600080fd5b505af115801561185b573d6000803e3d6000fd5b505050506040513d602081101561187157600080fd5b505192503484101561188957611889338534036131b0565b505096509650969350505050565b606081428110156118dd576040805162461bcd60e51b8152602060048201526018602482015260008051602061450d833981519152604482015290519081900360640190fd5b6001600160a01b037f0000000000000000000000000000000000000000000000000000000000000000168686600019810181811061191757fe5b905060200201356001600160a01b03166001600160a01b031614611970576040805162461bcd60e51b815260206004820152601d602482015260008051602061444d833981519152604482015290519081900360640190fd5b6119ce7f0000000000000000000000000000000000000000000000000000000000000000898888808060200260200160405190810160405280939291908181526020018383602002808284376000920191909152506137d492505050565b915086826000815181106119de57fe5b60200260200101511115611a235760405162461bcd60e51b81526004018080602001828103825260278152602001806144266027913960400191505060405180910390fd5b611a338686600081811061133357fe5b611a7282878780806020026020016040519081016040528093929190818152602001838360200280828437600092019190915250309250613a58915050565b7f00000000000000000000000000000000000000000000000000000000000000006001600160a01b0316632e1a7d4d83600185510381518110611ab157fe5b60200260200101516040518263ffffffff1660e01b815260040180828152602001915050600060405180830381600087803b158015611aef57600080fd5b505af1158015611b03573d6000803e3d6000fd5b505050506113eb8483600185510381518110611b1b57fe5b60200260200101516131b0565b6000610ca4848484613f69565b6000806000611b857f00000000000000000000000000000000000000000000000000000000000000008e7f00000000000000000000000000000000000000000000000000000000000000006132a8565b9050600087611b94578c611b98565b6000195b6040805163d505accf60e01b815233600482015230602482015260448101839052606481018c905260ff8a16608482015260a4810189905260c4810188905290519192506001600160a01b0384169163d505accf9160e48082019260009290919082900301818387803b158015611c0e57600080fd5b505af1158015611c22573d6000803e3d6000fd5b50505050611c348e8e8e8e8e8e610cac565b909f909e509c50505050505050505050505050565b60608142811015611c8f576040805162461bcd60e51b8152602060048201526018602482015260008051602061450d833981519152604482015290519081900360640190fd5b611ced7f0000000000000000000000000000000000000000000000000000000000000000898888808060200260200160405190810160405280939291908181526020018383602002808284376000920191909152506137d492505050565b91508682600081518110611cfd57fe5b602002602001015111156113235760405162461bcd60e51b81526004018080602001828103825260278152602001806144266027913960400191505060405180910390fd5b60008142811015611d88576040805162461bcd60e51b8152602060048201526018602482015260008051602061450d833981519152604482015290519081900360640190fd5b611db7887f00000000000000000000000000000000000000000000000000000000000000008989893089612064565b905080925050611e4088858a6001600160a01b03166370a08231306040518263ffffffff1660e01b815260040180826001600160a01b0316815260200191505060206040518083038186803b158015611e0f57600080fd5b505afa158015611e23573d6000803e3d6000fd5b505050506040513d6020811015611e3957600080fd5b5051613046565b7f00000000000000000000000000000000000000000000000000000000000000006001600160a01b0316632e1a7d4d836040518263ffffffff1660e01b815260040180828152602001915050600060405180830381600087803b158015611ea657600080fd5b505af1158015611eba573d6000803e3d6000fd5b505050506113eb84836131b0565b6000610ca4848484614041565b60608142811015611f1b576040805162461bcd60e51b8152602060048201526018602482015260008051602061450d833981519152604482015290519081900360640190fd5b6001600160a01b037f00000000000000000000000000000000000000000000000000000000000000001686866000198101818110611f5557fe5b905060200201356001600160a01b03166001600160a01b031614611fae576040805162461bcd60e51b815260206004820152601d602482015260008051602061444d833981519152604482015290519081900360640190fd5b61200c7f00000000000000000000000000000000000000000000000000000000000000008988888080602002602001604051908101604052809392919081815260200183836020028082843760009201919091525061392192505050565b9150868260018451038151811061201f57fe5b60200260200101511015611a235760405162461bcd60e51b815260040180806020018281038252602b815260200180614493602b913960400191505060405180910390fd5b60008082428110156120ab576040805162461bcd60e51b8152602060048201526018602482015260008051602061450d833981519152604482015290519081900360640190fd5b60006120d87f00000000000000000000000000000000000000000000000000000000000000008c8c6132a8565b604080516323b872dd60e01b81523360048201526001600160a01b03831660248201819052604482018d9052915192935090916323b872dd916064808201926020929091908290030181600087803b15801561213357600080fd5b505af1158015612147573d6000803e3d6000fd5b505050506040513d602081101561215d57600080fd5b50506040805163226bf2d160e21b81526001600160a01b03888116600483015282516000938493928616926389afcb44926024808301939282900301818787803b1580156121aa57600080fd5b505af11580156121be573d6000803e3d6000fd5b505050506040513d60408110156121d457600080fd5b508051602090910151909250905060006121ee8e8e6140e7565b509050806001600160a01b03168e6001600160a01b031614612211578183612214565b82825b90975095508a8710156122585760405162461bcd60e51b815260040180806020018281038252602681526020018061446d6026913960400191505060405180910390fd5b898610156122975760405162461bcd60e51b81526004018080602001828103825260268152602001806143906026913960400191505060405180910390fd5b505050505097509795505050505050565b6000806122f67f00000000000000000000000000000000000000000000000000000000000000008d7f00000000000000000000000000000000000000000000000000000000000000006132a8565b9050600086612305578b612309565b6000195b6040805163d505accf60e01b815233600482015230602482015260448101839052606481018b905260ff8916608482015260a4810188905260c4810187905290519192506001600160a01b0384169163d505accf9160e48082019260009290919082900301818387803b15801561237f57600080fd5b505af1158015612393573d6000803e3d6000fd5b505050506123a58d8d8d8d8d8d611d42565b9d9c50505050505050505050505050565b7f000000000000000000000000000000000000000000000000000000000000000081565b60608142811015612420576040805162461bcd60e51b8152602060048201526018602482015260008051602061450d833981519152604482015290519081900360640190fd5b7f00000000000000000000000000000000000000000000000000000000000000006001600160a01b03168686600081811061245757fe5b905060200201356001600160a01b03166001600160a01b0316146124b0576040805162461bcd60e51b815260206004820152601d602482015260008051602061444d833981519152604482015290519081900360640190fd5b61250e7f00000000000000000000000000000000000000000000000000000000000000003488888080602002602001604051908101604052809392919081815260200183836020028082843760009201919091525061392192505050565b9150868260018451038151811061252157fe5b602002602001015110156125665760405162461bcd60e51b815260040180806020018281038252602b815260200180614493602b913960400191505060405180910390fd5b7f00000000000000000000000000000000000000000000000000000000000000006001600160a01b031663d0e30db0836000815181106125a257fe5b60200260200101516040518263ffffffff1660e01b81526004016000604051808303818588803b1580156125d557600080fd5b505af11580156125e9573d6000803e3d6000fd5b50505050507f00000000000000000000000000000000000000000000000000000000000000006001600160a01b031663a9059cbb61264e7f000000000000000000000000000000000000000000000000000000000000000089896000818110610eef57fe5b8460008151811061265b57fe5b60200260200101516040518363ffffffff1660e01b815260040180836001600160a01b0316815260200182815260200192505050602060405180830381600087803b1580156126a957600080fd5b505af11580156126bd573d6000803e3d6000fd5b505050506040513d60208110156126d357600080fd5b50516126db57fe5b61271a82878780806020026020016040519081016040528093929190818152602001838360200280828437600092019190915250899250613a58915050565b5095945050505050565b60606111007f00000000000000000000000000000000000000000000000000000000000000008484613921565b8042811015612795576040805162461bcd60e51b8152602060048201526018602482015260008051602061450d833981519152604482015290519081900360640190fd5b7f00000000000000000000000000000000000000000000000000000000000000006001600160a01b0316858560008181106127cc57fe5b905060200201356001600160a01b03166001600160a01b031614612825576040805162461bcd60e51b815260206004820152601d602482015260008051602061444d833981519152604482015290519081900360640190fd5b60003490507f00000000000000000000000000000000000000000000000000000000000000006001600160a01b031663d0e30db0826040518263ffffffff1660e01b81526004016000604051808303818588803b15801561288557600080fd5b505af1158015612899573d6000803e3d6000fd5b50505050507f00000000000000000000000000000000000000000000000000000000000000006001600160a01b031663a9059cbb6128fe7f000000000000000000000000000000000000000000000000000000000000000089896000818110610eef57fe5b836040518363ffffffff1660e01b815260040180836001600160a01b0316815260200182815260200192505050602060405180830381600087803b15801561294557600080fd5b505af1158015612959573d6000803e3d6000fd5b505050506040513d602081101561296f57600080fd5b505161297757fe5b60008686600019810181811061298957fe5b905060200201356001600160a01b03166001600160a01b03166370a08231866040518263ffffffff1660e01b815260040180826001600160a01b0316815260200191505060206040518083038186803b1580156129e557600080fd5b505afa1580156129f9573d6000803e3d6000fd5b505050506040513d6020811015612a0f57600080fd5b50516040805160208981028281018201909352898252929350612a519290918a918a9182918501908490808284376000920191909152508992506134c5915050565b876115c78289896000198101818110612a6657fe5b905060200201356001600160a01b03166001600160a01b03166370a08231896040518263ffffffff1660e01b815260040180826001600160a01b0316815260200191505060206040518083038186803b15801561159557600080fd5b60008060008342811015612b0b576040805162461bcd60e51b8152602060048201526018602482015260008051602061450d833981519152604482015290519081900360640190fd5b612b198c8c8c8c8c8c613cd8565b90945092506000612b4b7f00000000000000000000000000000000000000000000000000000000000000008e8e6132a8565b9050612b598d338388613368565b612b658c338387613368565b806001600160a01b0316636a627842886040518263ffffffff1660e01b815260040180826001600160a01b03168152602001915050602060405180830381600087803b158015612bb457600080fd5b505af1158015612bc8573d6000803e3d6000fd5b505050506040513d6020811015612bde57600080fd5b5051949d939c50939a509198505050505050505050565b60608142811015612c3b576040805162461bcd60e51b8152602060048201526018602482015260008051602061450d833981519152604482015290519081900360640190fd5b7f00000000000000000000000000000000000000000000000000000000000000006001600160a01b031686866000818110612c7257fe5b905060200201356001600160a01b03166001600160a01b031614612ccb576040805162461bcd60e51b815260206004820152601d602482015260008051602061444d833981519152604482015290519081900360640190fd5b612d297f0000000000000000000000000000000000000000000000000000000000000000888888808060200260200160405190810160405280939291908181526020018383602002808284376000920191909152506137d492505050565b91503482600081518110612d3957fe5b60200260200101511115612d7e5760405162461bcd60e51b81526004018080602001828103825260278152602001806144266027913960400191505060405180910390fd5b7f00000000000000000000000000000000000000000000000000000000000000006001600160a01b031663d0e30db083600081518110612dba57fe5b60200260200101516040518263ffffffff1660e01b81526004016000604051808303818588803b158015612ded57600080fd5b505af1158015612e01573d6000803e3d6000fd5b50505050507f00000000000000000000000000000000000000000000000000000000000000006001600160a01b031663a9059cbb612e667f000000000000000000000000000000000000000000000000000000000000000089896000818110610eef57fe5b84600081518110612e7357fe5b60200260200101516040518363ffffffff1660e01b815260040180836001600160a01b0316815260200182815260200192505050602060405180830381600087803b158015612ec157600080fd5b505af1158015612ed5573d6000803e3d6000fd5b505050506040513d6020811015612eeb57600080fd5b5051612ef357fe5b612f3282878780806020026020016040519081016040528093929190818152602001838360200280828437600092019190915250899250613a58915050565b81600081518110612f3f57fe5b602002602001015134111561271a5761271a3383600081518110612f5f57fe5b602002602001015134036131b0565b6000808411612fae5760405162461bcd60e51b815260040180806020018281038252602b8152602001806144e2602b913960400191505060405180910390fd5b600083118015612fbe5750600082115b612ff95760405162461bcd60e51b81526004018080602001828103825260288152602001806143b66028913960400191505060405180910390fd5b6000613007856103e56141c5565b9050600061301582856141c5565b9050600061302f83613029886103e86141c5565b90614228565b905080828161303a57fe5b04979650505050505050565b604080516001600160a01b038481166024830152604480830185905283518084039091018152606490920183526020820180516001600160e01b031663a9059cbb60e01b178152925182516000946060949389169392918291908083835b602083106130c35780518252601f1990920191602091820191016130a4565b6001836020036101000a0380198251168184511680821785525050505050509050019150506000604051808303816000865af19150503d8060008114613125576040519150601f19603f3d011682016040523d82523d6000602084013e61312a565b606091505b5091509150818015613158575080511580613158575080806020019051602081101561315557600080fd5b50515b6131a9576040805162461bcd60e51b815260206004820152601f60248201527f5472616e7366657248656c7065723a205452414e534645525f4641494c454400604482015290519081900360640190fd5b5050505050565b604080516000808252602082019092526001600160a01b0384169083906040518082805190602001908083835b602083106131fc5780518252601f1990920191602091820191016131dd565b6001836020036101000a03801982511681845116808217855250505050505090500191505060006040518083038185875af1925050503d806000811461325e576040519150601f19603f3d011682016040523d82523d6000602084013e613263565b606091505b50509050806132a35760405162461bcd60e51b81526004018080602001828103825260238152602001806144036023913960400191505060405180910390fd5b505050565b60008060006132b785856140e7565b604080516bffffffffffffffffffffffff19606094851b811660208084019190915293851b81166034830152825160288184030181526048830184528051908501206001600160f81b031960688401529a90941b9093166069840152607d8301989098527fc0c875d9c0f62295072f21084a19a575ff5ef887aa5ed8ce83ccfc708901071a609d808401919091528851808403909101815260bd909201909752805196019590952095945050505050565b604080516001600160a01b0385811660248301528481166044830152606480830185905283518084039091018152608490920183526020820180516001600160e01b03166323b872dd60e01b17815292518251600094606094938a169392918291908083835b602083106133ed5780518252601f1990920191602091820191016133ce565b6001836020036101000a0380198251168184511680821785525050505050509050019150506000604051808303816000865af19150503d806000811461344f576040519150601f19603f3d011682016040523d82523d6000602084013e613454565b606091505b5091509150818015613482575080511580613482575080806020019051602081101561347f57600080fd5b50515b6134bd5760405162461bcd60e51b81526004018080602001828103825260248152602001806144be6024913960400191505060405180910390fd5b505050505050565b60005b60018351038110156132a3576000808483815181106134e357fe5b60200260200101518584600101815181106134fa57fe5b602002602001015191509150600061351283836140e7565b50905060006135427f000000000000000000000000000000000000000000000000000000000000000085856132a8565b9050600080600080846001600160a01b0316630902f1ac6040518163ffffffff1660e01b815260040160606040518083038186803b15801561358357600080fd5b505afa158015613597573d6000803e3d6000fd5b505050506040513d60608110156135ad57600080fd5b5080516020909101516001600160701b0391821693501690506000806001600160a01b038a8116908916146135e35782846135e6565b83835b9150915061363b828b6001600160a01b03166370a082318a6040518263ffffffff1660e01b815260040180826001600160a01b0316815260200191505060206040518083038186803b15801561159557600080fd5b9550613648868383612f6e565b945050505050600080856001600160a01b0316886001600160a01b03161461367257826000613676565b6000835b91509150600060028c51038a1061368d578a6136ce565b6136ce7f0000000000000000000000000000000000000000000000000000000000000000898e8d600201815181106136c157fe5b60200260200101516132a8565b604080516000808252602082019283905263022c0d9f60e01b835260248201878152604483018790526001600160a01b038086166064850152608060848501908152845160a48601819052969750908c169563022c0d9f958a958a958a9591949193919260c486019290918190849084905b83811015613758578181015183820152602001613740565b50505050905090810190601f1680156137855780820380516001836020036101000a031916815260200191505b5095505050505050600060405180830381600087803b1580156137a757600080fd5b505af11580156137bb573d6000803e3d6000fd5b50506001909b019a506134c89950505050505050505050565b606060028251101561382d576040805162461bcd60e51b815260206004820152601e60248201527f556e697377617056324c6962726172793a20494e56414c49445f504154480000604482015290519081900360640190fd5b815167ffffffffffffffff8111801561384557600080fd5b5060405190808252806020026020018201604052801561386f578160200160208202803683370190505b509050828160018351038151811061388357fe5b60209081029190910101528151600019015b8015613919576000806138d2878660018603815181106138b157fe5b60200260200101518786815181106138c557fe5b6020026020010151614277565b915091506138f48484815181106138e557fe5b60200260200101518383613f69565b84600185038151811061390357fe5b6020908102919091010152505060001901613895565b509392505050565b606060028251101561397a576040805162461bcd60e51b815260206004820152601e60248201527f556e697377617056324c6962726172793a20494e56414c49445f504154480000604482015290519081900360640190fd5b815167ffffffffffffffff8111801561399257600080fd5b506040519080825280602002602001820160405280156139bc578160200160208202803683370190505b50905082816000815181106139cd57fe5b60200260200101818152505060005b600183510381101561391957600080613a12878685815181106139fb57fe5b60200260200101518786600101815181106138c557fe5b91509150613a34848481518110613a2557fe5b60200260200101518383612f6e565b848460010181518110613a4357fe5b602090810291909101015250506001016139dc565b60005b6001835103811015613c8257600080848381518110613a7657fe5b6020026020010151858460010181518110613a8d57fe5b6020026020010151915091506000613aa583836140e7565b5090506000878560010181518110613ab957fe5b60200260200101519050600080836001600160a01b0316866001600160a01b031614613ae757826000613aeb565b6000835b91509150600060028a51038810613b025788613b36565b613b367f0000000000000000000000000000000000000000000000000000000000000000878c8b600201815181106136c157fe5b9050613b637f000000000000000000000000000000000000000000000000000000000000000088886132a8565b6001600160a01b031663022c0d9f84848460006040519080825280601f01601f191660200182016040528015613ba0576020820181803683370190505b506040518563ffffffff1660e01b815260040180858152602001848152602001836001600160a01b0316815260200180602001828103825283818151815260200191508051906020019080838360005b83811015613c08578181015183820152602001613bf0565b50505050905090810190601f168015613c355780820380516001836020036101000a031916815260200191505b5095505050505050600060405180830381600087803b158015613c5757600080fd5b505af1158015613c6b573d6000803e3d6000fd5b505060019099019850613a5b975050505050505050565b50505050565b80820382811115611103576040805162461bcd60e51b815260206004820152601560248201527464732d6d6174682d7375622d756e646572666c6f7760581b604482015290519081900360640190fd5b60008060006001600160a01b03167f00000000000000000000000000000000000000000000000000000000000000006001600160a01b031663e6a439058a8a6040518363ffffffff1660e01b815260040180836001600160a01b03168152602001826001600160a01b031681526020019250505060206040518083038186803b158015613d6457600080fd5b505afa158015613d78573d6000803e3d6000fd5b505050506040513d6020811015613d8e57600080fd5b50516001600160a01b03161415613e4c577f00000000000000000000000000000000000000000000000000000000000000006001600160a01b031663c9c6539689896040518363ffffffff1660e01b815260040180836001600160a01b03168152602001826001600160a01b0316815260200192505050602060405180830381600087803b158015613e1f57600080fd5b505af1158015613e33573d6000803e3d6000fd5b505050506040513d6020811015613e4957600080fd5b50505b600080613e7a7f00000000000000000000000000000000000000000000000000000000000000008b8b614277565b91509150816000148015613e8c575080155b15613e9c57879350869250613f5c565b6000613ea9898484614041565b9050878111613efc5785811015613ef15760405162461bcd60e51b81526004018080602001828103825260268152602001806143906026913960400191505060405180910390fd5b889450925082613f5a565b6000613f09898486614041565b905089811115613f1557fe5b87811015613f545760405162461bcd60e51b815260040180806020018281038252602681526020018061446d6026913960400191505060405180910390fd5b94508793505b505b5050965096945050505050565b6000808411613fa95760405162461bcd60e51b815260040180806020018281038252602c81526020018061433f602c913960400191505060405180910390fd5b600083118015613fb95750600082115b613ff45760405162461bcd60e51b81526004018080602001828103825260288152602001806143b66028913960400191505060405180910390fd5b600061400c6103e861400686886141c5565b906141c5565b905060006140206103e56140068689613c88565b9050614037600182848161403057fe5b0490614228565b9695505050505050565b60008084116140815760405162461bcd60e51b81526004018080602001828103825260258152602001806143de6025913960400191505060405180910390fd5b6000831180156140915750600082115b6140cc5760405162461bcd60e51b81526004018080602001828103825260288152602001806143b66028913960400191505060405180910390fd5b826140d785846141c5565b816140de57fe5b04949350505050565b600080826001600160a01b0316846001600160a01b0316141561413b5760405162461bcd60e51b815260040180806020018281038252602581526020018061436b6025913960400191505060405180910390fd5b826001600160a01b0316846001600160a01b03161061415b57828461415e565b83835b90925090506001600160a01b0382166141be576040805162461bcd60e51b815260206004820152601e60248201527f556e697377617056324c6962726172793a205a45524f5f414444524553530000604482015290519081900360640190fd5b9250929050565b60008115806141e0575050808202828282816141dd57fe5b04145b611103576040805162461bcd60e51b815260206004820152601460248201527364732d6d6174682d6d756c2d6f766572666c6f7760601b604482015290519081900360640190fd5b80820182811015611103576040805162461bcd60e51b815260206004820152601460248201527364732d6d6174682d6164642d6f766572666c6f7760601b604482015290519081900360640190fd5b600080600061428685856140e7565b5090506000806142978888886132a8565b6001600160a01b0316630902f1ac6040518163ffffffff1660e01b815260040160606040518083038186803b1580156142cf57600080fd5b505afa1580156142e3573d6000803e3d6000fd5b505050506040513d60608110156142f957600080fd5b5080516020909101516001600160701b0391821693501690506001600160a01b038781169084161461432c57808261432f565b81815b9099909850965050505050505056fe556e697377617056324c6962726172793a20494e53554646494349454e545f4f55545055545f414d4f554e54556e697377617056324c6962726172793a204944454e544943414c5f414444524553534553556e69737761705632526f757465723a20494e53554646494349454e545f425f414d4f554e54556e697377617056324c6962726172793a20494e53554646494349454e545f4c4951554944495459556e697377617056324c6962726172793a20494e53554646494349454e545f414d4f554e545472616e7366657248656c7065723a204558505f5452414e534645525f4641494c4544556e69737761705632526f757465723a204558434553534956455f494e5055545f414d4f554e54556e69737761705632526f757465723a20494e56414c49445f50415448000000556e69737761705632526f757465723a20494e53554646494349454e545f415f414d4f554e54556e69737761705632526f757465723a20494e53554646494349454e545f4f55545055545f414d4f554e545472616e7366657248656c7065723a205452414e534645525f46524f4d5f4641494c4544556e697377617056324c6962726172793a20494e53554646494349454e545f494e5055545f414d4f554e54556e69737761705632526f757465723a20455850495245440000000000000000a26469706673582212203ffc2fa86f29db84bde0ab4266856e7513bdf5448c6b34dc99b2e8a5b2aa742064736f6c634300060c0033",
  "immutableReferences": {
    "6539": [
      {
        "length": 32,
        "start": 3779
      },
      {
        "length": 32,
        "start": 4314
      },
      {
        "length": 32,
        "start": 4407
      },
      {
        "length": 32,
        "start": 4722
      },
      {
        "length": 32,
        "start": 4937
      },
      {
        "length": 32,
        "start": 5767
      },
      {
        "length": 32,
        "start": 6517
      },
      {
        "length": 32,
        "start": 6975
      },
      {
        "length": 32,
        "start": 7316
      },
      {
        "length": 32,
        "start": 8115
      },
      {
        "length": 32,
        "start": 8370
      },
      {
        "length": 32,
        "start": 8880
      },
      {
        "length": 32,
        "start": 9144
      },
      {
        "length": 32,
        "start": 9397
      },
      {
        "length": 32,
        "start": 9762
      },
      {
        "length": 32,
        "start": 10027
      },
      {
        "length": 32,
        "start": 10450
      },
      {
        "length": 32,
        "start": 11045
      },
      {
        "length": 32,
        "start": 11472
      },
      {
        "length": 32,
        "start": 11834
      },
      {
        "length": 32,
        "start": 13596
      },
      {
        "length": 32,
        "start": 13970
      },
      {
        "length": 32,
        "start": 15111
      },
      {
        "length": 32,
        "start": 15165
      },
      {
        "length": 32,
        "start": 15592
      },
      {
        "length": 32,
        "start": 15777
      },
      {
        "length": 32,
        "start": 15956
      }
    ],
    "6542": [
      {
        "length": 32,
        "start": 351
      },
      {
        "length": 32,
        "start": 3321
      },
      {
        "length": 32,
        "start": 3380
      },
      {
        "length": 32,
        "start": 3604
      },
      {
        "length": 32,
        "start": 3945
      },
      {
        "length": 32,
        "start": 4163
      },
      {
        "length": 32,
        "start": 4363
      },
      {
        "length": 32,
        "start": 5715
      },
      {
        "length": 32,
        "start": 5801
      },
      {
        "length": 32,
        "start": 5853
      },
      {
        "length": 32,
        "start": 5969
      },
      {
        "length": 32,
        "start": 6375
      },
      {
        "length": 32,
        "start": 6772
      },
      {
        "length": 32,
        "start": 7009
      },
      {
        "length": 32,
        "start": 7566
      },
      {
        "length": 32,
        "start": 7746
      },
      {
        "length": 32,
        "start": 7973
      },
      {
        "length": 32,
        "start": 8914
      },
      {
        "length": 32,
        "start": 9250
      },
      {
        "length": 32,
        "start": 9576
      },
      {
        "length": 32,
        "start": 9712
      },
      {
        "length": 32,
        "start": 10135
      },
      {
        "length": 32,
        "start": 10284
      },
      {
        "length": 32,
        "start": 10400
      },
      {
        "length": 32,
        "start": 11325
      },
      {
        "length": 32,
        "start": 11648
      },
      {
        "length": 32,
        "start": 11784
      }
    ]
  },
  "source": "pragma solidity =0.6.12;\n\n\nimport './libraries/UniswapV2Library.sol';\nimport './libraries/SafeMath.sol';\nimport './libraries/TransferHelper.sol';\nimport './interfaces/IUniswapV2Router02.sol';\nimport './interfaces/IUniswapV2Factory.sol';\nimport './interfaces/IERC20.sol';\nimport './interfaces/IWEXP.sol';\n\ncontract UniswapV2Router02 is IUniswapV2Router02 {\n    using SafeMathUniswap for uint;\n\n    address public immutable override factory;\n    address public immutable override WEXP;\n\n    modifier ensure(uint deadline) {\n        require(deadline >= block.timestamp, 'UniswapV2Router: EXPIRED');\n        _;\n    }\n\n    constructor(address _factory, address _WEXP) public {\n        factory = _factory;\n        WEXP = _WEXP;\n    }\n\n    receive() external payable {\n        assert(msg.sender == WEXP); // only accept EXP via fallback from the WEXP contract\n    }\n\n    // **** ADD LIQUIDITY ****\n    function _addLiquidity(\n        address tokenA,\n        address tokenB,\n        uint amountADesired,\n        uint amountBDesired,\n        uint amountAMin,\n        uint amountBMin\n    ) internal virtual returns (uint amountA, uint amountB) {\n        // create the pair if it doesn't exist yet\n        if (IUniswapV2Factory(factory).getPair(tokenA, tokenB) == address(0)) {\n            IUniswapV2Factory(factory).createPair(tokenA, tokenB);\n        }\n        (uint reserveA, uint reserveB) = UniswapV2Library.getReserves(factory, tokenA, tokenB);\n        if (reserveA == 0 && reserveB == 0) {\n            (amountA, amountB) = (amountADesired, amountBDesired);\n        } else {\n            uint amountBOptimal = UniswapV2Library.quote(amountADesired, reserveA, reserveB);\n            if (amountBOptimal <= amountBDesired) {\n                require(amountBOptimal >= amountBMin, 'UniswapV2Router: INSUFFICIENT_B_AMOUNT');\n                (amountA, amountB) = (amountADesired, amountBOptimal);\n            } else {\n                uint amountAOptimal = UniswapV2Library.quote(amountBDesired, reserveB, reserveA);\n                assert(amountAOptimal <= amountADesired);\n                require(amountAOptimal >= amountAMin, 'UniswapV2Router: INSUFFICIENT_A_AMOUNT');\n                (amountA, amountB) = (amountAOptimal, amountBDesired);\n            }\n        }\n    }\n    function addLiquidity(\n        address tokenA,\n        address tokenB,\n        uint amountADesired,\n        uint amountBDesired,\n        uint amountAMin,\n        uint amountBMin,\n        address to,\n        uint deadline\n    ) external virtual override ensure(deadline) returns (uint amountA, uint amountB, uint liquidity) {\n        (amountA, amountB) = _addLiquidity(tokenA, tokenB, amountADesired, amountBDesired, amountAMin, amountBMin);\n        address pair = UniswapV2Library.pairFor(factory, tokenA, tokenB);\n        TransferHelper.safeTransferFrom(tokenA, msg.sender, pair, amountA);\n        TransferHelper.safeTransferFrom(tokenB, msg.sender, pair, amountB);\n        liquidity = IUniswapV2Pair(pair).mint(to);\n    }\n    function addLiquidityEXP(\n        address token,\n        uint amountTokenDesired,\n        uint amountTokenMin,\n        uint amountEXPMin,\n        address to,\n        uint deadline\n    ) external virtual override payable ensure(deadline) returns (uint amountToken, uint amountEXP, uint liquidity) {\n        (amountToken, amountEXP) = _addLiquidity(\n            token,\n            WEXP,\n            amountTokenDesired,\n            msg.value,\n            amountTokenMin,\n            amountEXPMin\n        );\n        address pair = UniswapV2Library.pairFor(factory, token, WEXP);\n        TransferHelper.safeTransferFrom(token, msg.sender, pair, amountToken);\n        IWEXP(WEXP).deposit{value: amountEXP}();\n        assert(IWEXP(WEXP).transfer(pair, amountEXP));\n        liquidity = IUniswapV2Pair(pair).mint(to);\n        // refund dust eth, if any\n        if (msg.value > amountEXP) TransferHelper.safeTransferEXP(msg.sender, msg.value - amountEXP);\n    }\n\n    // **** REMOVE LIQUIDITY ****\n    function removeLiquidity(\n        address tokenA,\n        address tokenB,\n        uint liquidity,\n        uint amountAMin,\n        uint amountBMin,\n        address to,\n        uint deadline\n    ) public virtual override ensure(deadline) returns (uint amountA, uint amountB) {\n        address pair = UniswapV2Library.pairFor(factory, tokenA, tokenB);\n        IUniswapV2Pair(pair).transferFrom(msg.sender, pair, liquidity); // send liquidity to pair\n        (uint amount0, uint amount1) = IUniswapV2Pair(pair).burn(to);\n        (address token0,) = UniswapV2Library.sortTokens(tokenA, tokenB);\n        (amountA, amountB) = tokenA == token0 ? (amount0, amount1) : (amount1, amount0);\n        require(amountA >= amountAMin, 'UniswapV2Router: INSUFFICIENT_A_AMOUNT');\n        require(amountB >= amountBMin, 'UniswapV2Router: INSUFFICIENT_B_AMOUNT');\n    }\n    function removeLiquidityEXP(\n        address token,\n        uint liquidity,\n        uint amountTokenMin,\n        uint amountEXPMin,\n        address to,\n        uint deadline\n    ) public virtual override ensure(deadline) returns (uint amountToken, uint amountEXP) {\n        (amountToken, amountEXP) = removeLiquidity(\n            token,\n            WEXP,\n            liquidity,\n            amountTokenMin,\n            amountEXPMin,\n            address(this),\n            deadline\n        );\n        TransferHelper.safeTransfer(token, to, amountToken);\n        IWEXP(WEXP).withdraw(amountEXP);\n        TransferHelper.safeTransferEXP(to, amountEXP);\n    }\n    function removeLiquidityWithPermit(\n        address tokenA,\n        address tokenB,\n        uint liquidity,\n        uint amountAMin,\n        uint amountBMin,\n        address to,\n        uint deadline,\n        bool approveMax, uint8 v, bytes32 r, bytes32 s\n    ) external virtual override returns (uint amountA, uint amountB) {\n        address pair = UniswapV2Library.pairFor(factory, tokenA, tokenB);\n        uint value = approveMax ? uint(-1) : liquidity;\n        IUniswapV2Pair(pair).permit(msg.sender, address(this), value, deadline, v, r, s);\n        (amountA, amountB) = removeLiquidity(tokenA, tokenB, liquidity, amountAMin, amountBMin, to, deadline);\n    }\n    function removeLiquidityEXPWithPermit(\n        address token,\n        uint liquidity,\n        uint amountTokenMin,\n        uint amountEXPMin,\n        address to,\n        uint deadline,\n        bool approveMax, uint8 v, bytes32 r, bytes32 s\n    ) external virtual override returns (uint amountToken, uint amountEXP) {\n        address pair = UniswapV2Library.pairFor(factory, token, WEXP);\n        uint value = approveMax ? uint(-1) : liquidity;\n        IUniswapV2Pair(pair).permit(msg.sender, address(this), value, deadline, v, r, s);\n        (amountToken, amountEXP) = removeLiquidityEXP(token, liquidity, amountTokenMin, amountEXPMin, to, deadline);\n    }\n\n    // **** REMOVE LIQUIDITY (supporting fee-on-transfer tokens) ****\n    function removeLiquidityEXPSupportingFeeOnTransferTokens(\n        address token,\n        uint liquidity,\n        uint amountTokenMin,\n        uint amountEXPMin,\n        address to,\n        uint deadline\n    ) public virtual override ensure(deadline) returns (uint amountEXP) {\n        (, amountEXP) = removeLiquidity(\n            token,\n            WEXP,\n            liquidity,\n            amountTokenMin,\n            amountEXPMin,\n            address(this),\n            deadline\n        );\n        TransferHelper.safeTransfer(token, to, IERC20Uniswap(token).balanceOf(address(this)));\n        IWEXP(WEXP).withdraw(amountEXP);\n        TransferHelper.safeTransferEXP(to, amountEXP);\n    }\n    function removeLiquidityEXPWithPermitSupportingFeeOnTransferTokens(\n        address token,\n        uint liquidity,\n        uint amountTokenMin,\n        uint amountEXPMin,\n        address to,\n        uint deadline,\n        bool approveMax, uint8 v, bytes32 r, bytes32 s\n    ) external virtual override returns (uint amountEXP) {\n        address pair = UniswapV2Library.pairFor(factory, token, WEXP);\n        uint value = approveMax ? uint(-1) : liquidity;\n        IUniswapV2Pair(pair).permit(msg.sender, address(this), value, deadline, v, r, s);\n        amountEXP = removeLiquidityEXPSupportingFeeOnTransferTokens(\n            token, liquidity, amountTokenMin, amountEXPMin, to, deadline\n        );\n    }\n\n    // **** SWAP ****\n    // requires the initial amount to have already been sent to the first pair\n    function _swap(uint[] memory amounts, address[] memory path, address _to) internal virtual {\n        for (uint i; i < path.length - 1; i++) {\n            (address input, address output) = (path[i], path[i + 1]);\n            (address token0,) = UniswapV2Library.sortTokens(input, output);\n            uint amountOut = amounts[i + 1];\n            (uint amount0Out, uint amount1Out) = input == token0 ? (uint(0), amountOut) : (amountOut, uint(0));\n            address to = i < path.length - 2 ? UniswapV2Library.pairFor(factory, output, path[i + 2]) : _to;\n            IUniswapV2Pair(UniswapV2Library.pairFor(factory, input, output)).swap(\n                amount0Out, amount1Out, to, new bytes(0)\n            );\n        }\n    }\n    function swapExactTokensForTokens(\n        uint amountIn,\n        uint amountOutMin,\n        address[] calldata path,\n        address to,\n        uint deadline\n    ) external virtual override ensure(deadline) returns (uint[] memory amounts) {\n        amounts = UniswapV2Library.getAmountsOut(factory, amountIn, path);\n        require(amounts[amounts.length - 1] >= amountOutMin, 'UniswapV2Router: INSUFFICIENT_OUTPUT_AMOUNT');\n        TransferHelper.safeTransferFrom(\n            path[0], msg.sender, UniswapV2Library.pairFor(factory, path[0], path[1]), amounts[0]\n        );\n        _swap(amounts, path, to);\n    }\n    function swapTokensForExactTokens(\n        uint amountOut,\n        uint amountInMax,\n        address[] calldata path,\n        address to,\n        uint deadline\n    ) external virtual override ensure(deadline) returns (uint[] memory amounts) {\n        amounts = UniswapV2Library.getAmountsIn(factory, amountOut, path);\n        require(amounts[0] <= amountInMax, 'UniswapV2Router: EXCESSIVE_INPUT_AMOUNT');\n        TransferHelper.safeTransferFrom(\n            path[0], msg.sender, UniswapV2Library.pairFor(factory, path[0], path[1]), amounts[0]\n        );\n        _swap(amounts, path, to);\n    }\n    function swapExactEXPForTokens(uint amountOutMin, address[] calldata path, address to, uint deadline)\n        external\n        virtual\n        override\n        payable\n        ensure(deadline)\n        returns (uint[] memory amounts)\n    {\n        require(path[0] == WEXP, 'UniswapV2Router: INVALID_PATH');\n        amounts = UniswapV2Library.getAmountsOut(factory, msg.value, path);\n        require(amounts[amounts.length - 1] >= amountOutMin, 'UniswapV2Router: INSUFFICIENT_OUTPUT_AMOUNT');\n        IWEXP(WEXP).deposit{value: amounts[0]}();\n        assert(IWEXP(WEXP).transfer(UniswapV2Library.pairFor(factory, path[0], path[1]), amounts[0]));\n        _swap(amounts, path, to);\n    }\n    function swapTokensForExactEXP(uint amountOut, uint amountInMax, address[] calldata path, address to, uint deadline)\n        external\n        virtual\n        override\n        ensure(deadline)\n        returns (uint[] memory amounts)\n    {\n        require(path[path.length - 1] == WEXP, 'UniswapV2Router: INVALID_PATH');\n        amounts = UniswapV2Library.getAmountsIn(factory, amountOut, path);\n        require(amounts[0] <= amountInMax, 'UniswapV2Router: EXCESSIVE_INPUT_AMOUNT');\n        TransferHelper.safeTransferFrom(\n            path[0], msg.sender, UniswapV2Library.pairFor(factory, path[0], path[1]), amounts[0]\n        );\n        _swap(amounts, path, address(this));\n        IWEXP(WEXP).withdraw(amounts[amounts.length - 1]);\n        TransferHelper.safeTransferEXP(to, amounts[amounts.length - 1]);\n    }\n    function swapExactTokensForEXP(uint amountIn, uint amountOutMin, address[] calldata path, address to, uint deadline)\n        external\n        virtual\n        override\n        ensure(deadline)\n        returns (uint[] memory amounts)\n    {\n        require(path[path.length - 1] == WEXP, 'UniswapV2Router: INVALID_PATH');\n        amounts = UniswapV2Library.getAmountsOut(factory, amountIn, path);\n        require(amounts[amounts.length - 1] >= amountOutMin, 'UniswapV2Router: INSUFFICIENT_OUTPUT_AMOUNT');\n        TransferHelper.safeTransferFrom(\n            path[0], msg.sender, UniswapV2Library.pairFor(factory, path[0], path[1]), amounts[0]\n        );\n        _swap(amounts, path, address(this));\n        IWEXP(WEXP).withdraw(amounts[amounts.length - 1]);\n        TransferHelper.safeTransferEXP(to, amounts[amounts.length - 1]);\n    }\n    function swapEXPForExactTokens(uint amountOut, address[] calldata path, address to, uint deadline)\n        external\n        virtual\n        override\n        payable\n        ensure(deadline)\n        returns (uint[] memory amounts)\n    {\n        require(path[0] == WEXP, 'UniswapV2Router: INVALID_PATH');\n        amounts = UniswapV2Library.getAmountsIn(factory, amountOut, path);\n        require(amounts[0] <= msg.value, 'UniswapV2Router: EXCESSIVE_INPUT_AMOUNT');\n        IWEXP(WEXP).deposit{value: amounts[0]}();\n        assert(IWEXP(WEXP).transfer(UniswapV2Library.pairFor(factory, path[0], path[1]), amounts[0]));\n        _swap(amounts, path, to);\n        // refund dust eth, if any\n        if (msg.value > amounts[0]) TransferHelper.safeTransferEXP(msg.sender, msg.value - amounts[0]);\n    }\n\n    // **** SWAP (supporting fee-on-transfer tokens) ****\n    // requires the initial amount to have already been sent to the first pair\n    function _swapSupportingFeeOnTransferTokens(address[] memory path, address _to) internal virtual {\n        for (uint i; i < path.length - 1; i++) {\n            (address input, address output) = (path[i], path[i + 1]);\n            (address token0,) = UniswapV2Library.sortTokens(input, output);\n            IUniswapV2Pair pair = IUniswapV2Pair(UniswapV2Library.pairFor(factory, input, output));\n            uint amountInput;\n            uint amountOutput;\n            { // scope to avoid stack too deep errors\n            (uint reserve0, uint reserve1,) = pair.getReserves();\n            (uint reserveInput, uint reserveOutput) = input == token0 ? (reserve0, reserve1) : (reserve1, reserve0);\n            amountInput = IERC20Uniswap(input).balanceOf(address(pair)).sub(reserveInput);\n            amountOutput = UniswapV2Library.getAmountOut(amountInput, reserveInput, reserveOutput);\n            }\n            (uint amount0Out, uint amount1Out) = input == token0 ? (uint(0), amountOutput) : (amountOutput, uint(0));\n            address to = i < path.length - 2 ? UniswapV2Library.pairFor(factory, output, path[i + 2]) : _to;\n            pair.swap(amount0Out, amount1Out, to, new bytes(0));\n        }\n    }\n    function swapExactTokensForTokensSupportingFeeOnTransferTokens(\n        uint amountIn,\n        uint amountOutMin,\n        address[] calldata path,\n        address to,\n        uint deadline\n    ) external virtual override ensure(deadline) {\n        TransferHelper.safeTransferFrom(\n            path[0], msg.sender, UniswapV2Library.pairFor(factory, path[0], path[1]), amountIn\n        );\n        uint balanceBefore = IERC20Uniswap(path[path.length - 1]).balanceOf(to);\n        _swapSupportingFeeOnTransferTokens(path, to);\n        require(\n            IERC20Uniswap(path[path.length - 1]).balanceOf(to).sub(balanceBefore) >= amountOutMin,\n            'UniswapV2Router: INSUFFICIENT_OUTPUT_AMOUNT'\n        );\n    }\n    function swapExactEXPForTokensSupportingFeeOnTransferTokens(\n        uint amountOutMin,\n        address[] calldata path,\n        address to,\n        uint deadline\n    )\n        external\n        virtual\n        override\n        payable\n        ensure(deadline)\n    {\n        require(path[0] == WEXP, 'UniswapV2Router: INVALID_PATH');\n        uint amountIn = msg.value;\n        IWEXP(WEXP).deposit{value: amountIn}();\n        assert(IWEXP(WEXP).transfer(UniswapV2Library.pairFor(factory, path[0], path[1]), amountIn));\n        uint balanceBefore = IERC20Uniswap(path[path.length - 1]).balanceOf(to);\n        _swapSupportingFeeOnTransferTokens(path, to);\n        require(\n            IERC20Uniswap(path[path.length - 1]).balanceOf(to).sub(balanceBefore) >= amountOutMin,\n            'UniswapV2Router: INSUFFICIENT_OUTPUT_AMOUNT'\n        );\n    }\n    function swapExactTokensForEXPSupportingFeeOnTransferTokens(\n        uint amountIn,\n        uint amountOutMin,\n        address[] calldata path,\n        address to,\n        uint deadline\n    )\n        external\n        virtual\n        override\n        ensure(deadline)\n    {\n        require(path[path.length - 1] == WEXP, 'UniswapV2Router: INVALID_PATH');\n        TransferHelper.safeTransferFrom(\n            path[0], msg.sender, UniswapV2Library.pairFor(factory, path[0], path[1]), amountIn\n        );\n        _swapSupportingFeeOnTransferTokens(path, address(this));\n        uint amountOut = IERC20Uniswap(WEXP).balanceOf(address(this));\n        require(amountOut >= amountOutMin, 'UniswapV2Router: INSUFFICIENT_OUTPUT_AMOUNT');\n        IWEXP(WEXP).withdraw(amountOut);\n        TransferHelper.safeTransferEXP(to, amountOut);\n    }\n\n    // **** LIBRARY FUNCTIONS ****\n    function quote(uint amountA, uint reserveA, uint reserveB) public pure virtual override returns (uint amountB) {\n        return UniswapV2Library.quote(amountA, reserveA, reserveB);\n    }\n\n    function getAmountOut(uint amountIn, uint reserveIn, uint reserveOut)\n        public\n        pure\n        virtual\n        override\n        returns (uint amountOut)\n    {\n        return UniswapV2Library.getAmountOut(amountIn, reserveIn, reserveOut);\n    }\n\n    function getAmountIn(uint amountOut, uint reserveIn, uint reserveOut)\n        public\n        pure\n        virtual\n        override\n        returns (uint amountIn)\n    {\n        return UniswapV2Library.getAmountIn(amountOut, reserveIn, reserveOut);\n    }\n\n    function getAmountsOut(uint amountIn, address[] memory path)\n        public\n        view\n        virtual\n        override\n        returns (uint[] memory amounts)\n    {\n        return UniswapV2Library.getAmountsOut(factory, amountIn, path);\n    }\n\n    function getAmountsIn(uint amountOut, address[] memory path)\n        public\n        view\n        virtual\n        override\n        returns (uint[] memory amounts)\n    {\n        return UniswapV2Library.getAmountsIn(factory, amountOut, path);\n    }\n}\n",
  "sourcePath": "/Users/chris/Desktop/EXPvETH/eggswap/eggswap/solidity/contracts/uniswapv2/UniswapV2Router02.sol",
  "compiler": {
    "name": "solc",
    "version": "0.6.12+commit.27d51765.Emscripten.clang"
  },
  "schemaVersion": "3.2.5",
  "updatedAt": "2020-10-01T21:58:01.028Z",
  "networkType": "ethereum",
  "devdoc": {
    "kind": "dev",
    "methods": {},
    "version": 1
  },
  "userdoc": {
    "kind": "user",
    "methods": {},
    "version": 1
  }
}