{
  "contractName": "Balances",
  "abi": [
    {
      "inputs": [
        {
          "internalType": "uint256",
          "name": "premine",
          "type": "uint256"
        }
      ],
      "stateMutability": "nonpayable",
      "type": "constructor"
    },
    {
      "anonymous": false,
      "inputs": [
        {
          "indexed": true,
          "internalType": "address",
          "name": "Module",
          "type": "address"
        },
        {
          "indexed": true,
          "internalType": "address",
          "name": "Account",
          "type": "address"
        },
        {
          "indexed": false,
          "internalType": "uint256",
          "name": "Amount",
          "type": "uint256"
        },
        {
          "indexed": false,
          "internalType": "string",
          "name": "Polarity",
          "type": "string"
        }
      ],
      "name": "BalanceAdj",
      "type": "event"
    },
    {
      "anonymous": false,
      "inputs": [
        {
          "indexed": true,
          "internalType": "address",
          "name": "Module",
          "type": "address"
        },
        {
          "indexed": true,
          "internalType": "bool",
          "name": "Set",
          "type": "bool"
        }
      ],
      "name": "ModuleSet",
      "type": "event"
    },
    {
      "inputs": [
        {
          "internalType": "address",
          "name": "",
          "type": "address"
        }
      ],
      "name": "balances",
      "outputs": [
        {
          "internalType": "uint256",
          "name": "",
          "type": "uint256"
        }
      ],
      "stateMutability": "view",
      "type": "function",
      "constant": true
    },
    {
      "inputs": [
        {
          "internalType": "address",
          "name": "",
          "type": "address"
        }
      ],
      "name": "modules",
      "outputs": [
        {
          "internalType": "bool",
          "name": "",
          "type": "bool"
        }
      ],
      "stateMutability": "view",
      "type": "function",
      "constant": true
    },
    {
      "inputs": [],
      "name": "root",
      "outputs": [
        {
          "internalType": "address payable",
          "name": "",
          "type": "address"
        }
      ],
      "stateMutability": "view",
      "type": "function",
      "constant": true
    },
    {
      "inputs": [],
      "name": "totalSupply",
      "outputs": [
        {
          "internalType": "uint256",
          "name": "",
          "type": "uint256"
        }
      ],
      "stateMutability": "view",
      "type": "function",
      "constant": true
    },
    {
      "inputs": [
        {
          "internalType": "address",
          "name": "_acct",
          "type": "address"
        }
      ],
      "name": "getBalance",
      "outputs": [
        {
          "internalType": "uint256",
          "name": "balance",
          "type": "uint256"
        }
      ],
      "stateMutability": "view",
      "type": "function",
      "constant": true
    },
    {
      "inputs": [
        {
          "internalType": "address",
          "name": "_acct",
          "type": "address"
        },
        {
          "internalType": "uint256",
          "name": "_val",
          "type": "uint256"
        }
      ],
      "name": "incBalance",
      "outputs": [
        {
          "internalType": "bool",
          "name": "success",
          "type": "bool"
        }
      ],
      "stateMutability": "nonpayable",
      "type": "function"
    },
    {
      "inputs": [
        {
          "internalType": "address",
          "name": "_acct",
          "type": "address"
        },
        {
          "internalType": "uint256",
          "name": "_val",
          "type": "uint256"
        }
      ],
      "name": "decBalance",
      "outputs": [
        {
          "internalType": "bool",
          "name": "success",
          "type": "bool"
        }
      ],
      "stateMutability": "nonpayable",
      "type": "function"
    },
    {
      "inputs": [
        {
          "internalType": "address",
          "name": "_owner",
          "type": "address"
        },
        {
          "internalType": "address",
          "name": "_spender",
          "type": "address"
        }
      ],
      "name": "getAllowance",
      "outputs": [
        {
          "internalType": "uint256",
          "name": "remaining",
          "type": "uint256"
        }
      ],
      "stateMutability": "view",
      "type": "function",
      "constant": true
    },
    {
      "inputs": [
        {
          "internalType": "address",
          "name": "_sender",
          "type": "address"
        },
        {
          "internalType": "address",
          "name": "_spender",
          "type": "address"
        },
        {
          "internalType": "uint256",
          "name": "_value",
          "type": "uint256"
        }
      ],
      "name": "setApprove",
      "outputs": [
        {
          "internalType": "bool",
          "name": "success",
          "type": "bool"
        }
      ],
      "stateMutability": "nonpayable",
      "type": "function"
    },
    {
      "inputs": [
        {
          "internalType": "address",
          "name": "_from",
          "type": "address"
        },
        {
          "internalType": "address",
          "name": "_spender",
          "type": "address"
        },
        {
          "internalType": "uint256",
          "name": "_value",
          "type": "uint256"
        }
      ],
      "name": "decApprove",
      "outputs": [
        {
          "internalType": "bool",
          "name": "success",
          "type": "bool"
        }
      ],
      "stateMutability": "nonpayable",
      "type": "function"
    },
    {
      "inputs": [
        {
          "internalType": "address",
          "name": "_acct",
          "type": "address"
        }
      ],
      "name": "getModule",
      "outputs": [
        {
          "internalType": "bool",
          "name": "",
          "type": "bool"
        }
      ],
      "stateMutability": "view",
      "type": "function",
      "constant": true
    },
    {
      "inputs": [
        {
          "internalType": "address",
          "name": "_acct",
          "type": "address"
        },
        {
          "internalType": "bool",
          "name": "_set",
          "type": "bool"
        }
      ],
      "name": "setModule",
      "outputs": [
        {
          "internalType": "bool",
          "name": "success",
          "type": "bool"
        },
        {
          "internalType": "address",
          "name": "module",
          "type": "address"
        },
        {
          "internalType": "bool",
          "name": "set",
          "type": "bool"
        }
      ],
      "stateMutability": "nonpayable",
      "type": "function"
    },
    {
      "inputs": [],
      "name": "getTotalSupply",
      "outputs": [
        {
          "internalType": "uint256",
          "name": "",
          "type": "uint256"
        }
      ],
      "stateMutability": "view",
      "type": "function",
      "constant": true
    },
    {
      "inputs": [
        {
          "internalType": "uint256",
          "name": "_val",
          "type": "uint256"
        }
      ],
      "name": "incTotalSupply",
      "outputs": [
        {
          "internalType": "bool",
          "name": "success",
          "type": "bool"
        }
      ],
      "stateMutability": "nonpayable",
      "type": "function"
    },
    {
      "inputs": [
        {
          "internalType": "uint256",
          "name": "_val",
          "type": "uint256"
        }
      ],
      "name": "decTotalSupply",
      "outputs": [
        {
          "internalType": "bool",
          "name": "success",
          "type": "bool"
        }
      ],
      "stateMutability": "nonpayable",
      "type": "function"
    },
    {
      "inputs": [
        {
          "internalType": "address payable",
          "name": "_sendTo",
          "type": "address"
        }
      ],
      "name": "empty",
      "outputs": [],
      "stateMutability": "nonpayable",
      "type": "function"
    },
    {
      "inputs": [],
      "name": "kill",
      "outputs": [],
      "stateMutability": "nonpayable",
      "type": "function"
    },
    {
      "inputs": [
        {
          "internalType": "address payable",
          "name": "_newOwner",
          "type": "address"
        }
      ],
      "name": "transferRoot",
      "outputs": [],
      "stateMutability": "nonpayable",
      "type": "function"
    }
  ],
  "bytecode": "0x608060405234801561001057600080fd5b506040516108723803806108728339818101604052602081101561003357600080fd5b5051600080546001600160a01b031916331790558015610079573360009081526003602052604090208054670de0b6b3a764000083029081019091556001805490910190555b506107e9806100896000396000f3fe608060405234801561001057600080fd5b50600436106101165760003560e01c8063aba00859116100a2578063c4e41b2211610071578063c4e41b2214610342578063ebf0c7171461034a578063ecfc59641461036e578063f8b2cb4f1461038b578063fcfdf7c5146103b157610116565b8063aba0085914610272578063b1662d581461029e578063b5de8d4c146102f6578063c296302a1461031c57610116565b806341c0e1b5116100e957806341c0e1b5146101ba578063486581ea146101c457806366e7ea0f146101ea57806391ef14b414610216578063a8ee49fe1461024c57610116565b80630af4187d1461011b57806318160ddd1461015b57806327e235e31461016357806335e0909514610189575b600080fd5b6101496004803603604081101561013157600080fd5b506001600160a01b03813581169160200135166103e7565b60408051918252519081900360200190f35b610149610414565b6101496004803603602081101561017957600080fd5b50356001600160a01b031661041a565b6101a66004803603602081101561019f57600080fd5b503561042c565b604080519115158252519081900360200190f35b6101c2610459565b005b6101c2600480360360208110156101da57600080fd5b50356001600160a01b031661047a565b6101a66004803603604081101561020057600080fd5b506001600160a01b0381351690602001356104bd565b6101a66004803603606081101561022c57600080fd5b506001600160a01b0381358116916020810135909116906040013561054e565b6101a66004803603602081101561026257600080fd5b50356001600160a01b031661059e565b6101a66004803603604081101561028857600080fd5b506001600160a01b0381351690602001356105b3565b6102cc600480360360408110156102b457600080fd5b506001600160a01b0381351690602001351515610645565b6040805193151584526001600160a01b039092166020840152151582820152519081900360600190f35b6101a66004803603602081101561030c57600080fd5b50356001600160a01b03166106b6565b6101c26004803603602081101561033257600080fd5b50356001600160a01b03166106d4565b610149610707565b61035261070d565b604080516001600160a01b039092168252519081900360200190f35b6101a66004803603602081101561038457600080fd5b503561071c565b610149600480360360208110156103a157600080fd5b50356001600160a01b0316610747565b6101a6600480360360608110156103c757600080fd5b506001600160a01b03813581169160208101359091169060400135610762565b6001600160a01b038083166000908152600460209081526040808320938516835292905220545b92915050565b60015481565b60036020526000908152604090205481565b3360009081526002602052604081205460ff1615156001141561011657506001805482900381555b919050565b6000546001600160a01b0316331415610116576000546001600160a01b0316ff5b6000546001600160a01b0316331415610116576040516001600160a01b038216904780156108fc02916000818181858888f193505050506104ba57600080fd5b50565b3360009081526002602052604081205460ff16151560011415610116576001600160a01b0383166000818152600360209081526040918290208054860190558151858152908101829052600181830152602b60f81b6060820152905133917f99affe65171b929cf897471b0e82d82c6cc3406b53fdbc068ea3b174e7713176919081900360800190a350600161040e565b3360009081526002602052604081205460ff1615156001141561011657506001600160a01b03808416600090815260046020908152604080832093861683529290522081905560015b9392505050565b60026020526000908152604090205460ff1681565b3360009081526002602052604081205460ff16151560011415610116576001600160a01b038316600081815260036020908152604091829020805486900390558151858152908101829052600181830152602d60f81b6060820152905133917f99affe65171b929cf897471b0e82d82c6cc3406b53fdbc068ea3b174e7713176919081900360800190a350600161040e565b60008054819081906001600160a01b0316331415610116576001600160a01b038516600081815260026020526040808220805460ff191688151590811790915590519092917f96bf850214e832f3d463d74cdf933b2aa73175e078496bd11f5e8afaeb2bbb9c91a350600194915050565b6001600160a01b031660009081526002602052604090205460ff1690565b6000546001600160a01b031633141561011657600080546001600160a01b0319166001600160a01b0383161790556104ba565b60015490565b6000546001600160a01b031681565b3360009081526002602052604081205460ff1615156001141561011657506001805482018155610454565b6001600160a01b031660009081526003602052604090205490565b3360009081526002602052604081205460ff1615156001141561011657506001600160a01b03808416600090815260046020908152604080832093861683529290522080548290039055600161059756fea2646970667358221220e296066c90f85a18cfd6016c602e08cdcf981a35c23a5e22c74c509d8289cd6d64736f6c634300060c0033",
  "immutableReferences": {},
  "source": "pragma solidity >=0.4.8;\n\ncontract Balances {\n  // GLOBAL VARS\n  address payable public root;\n\n  uint public totalSupply;\n\n  // EVENTS\n  event BalanceAdj(address indexed Module, address indexed Account, uint Amount, string Polarity);\n  event ModuleSet(address indexed Module, bool indexed Set);\n\n  // MAPPINGS\n  mapping(address=>bool) public modules;\n  mapping(address=>uint) public balances;\n  mapping (address => mapping (address => uint256)) allowed;\n\n  // MODIFIERS\n  modifier onlyModule(){\n    if(modules[msg.sender] == true){ _ ;} else { revert(); }\n  }\n\n  modifier onlyRoot(){\n    if(root == msg.sender){ _ ;} else { revert(); }\n  }\n\n  constructor(uint premine) public {\n    root = msg.sender;\n\n    if(premine > 0){\n      uint premineInWei = premine * 1 ether;\n\n      balances[msg.sender]+=premineInWei;\n      totalSupply+=premineInWei;\n    }\n  }\n\n  // GET BALANCE\n  function getBalance(address _acct) view public returns(uint balance){\n    return balances[_acct];\n  }\n\n  // UPDATE BALANCE FUNCTIONS\n  function incBalance(address _acct, uint _val) public onlyModule returns(bool success){\n    balances[_acct]+=_val;\n    emit BalanceAdj(msg.sender, _acct, _val, \"+\");\n    return true;\n  }\n\n  function decBalance(address _acct, uint _val) public onlyModule returns(bool success){\n    balances[_acct]-=_val;\n    emit BalanceAdj(msg.sender, _acct, _val, \"-\");\n    return true;\n  }\n\n  // ALLOWED\n  function getAllowance(address _owner, address _spender) view public returns(uint remaining){\n    return allowed[_owner][_spender];\n  }\n\n  function setApprove(address _sender, address _spender, uint256 _value) public onlyModule returns (bool success) {\n      allowed[_sender][_spender] = _value;\n      return true;\n  }\n\n  function decApprove(address _from, address _spender, uint _value) public onlyModule returns (bool success){\n    allowed[_from][_spender] -= _value;\n    return true;\n  }\n\n  // GET MODULE\n  function getModule(address _acct) view public returns (bool){\n    return modules[_acct];\n  }\n\n  // SET MODULE\n  function setModule(address _acct, bool _set) public onlyRoot returns(bool success, address module, bool set){\n    modules[_acct] = _set;\n    emit ModuleSet(_acct, _set);\n    return (true, _acct, _set);\n  }\n\n  function getTotalSupply() view public returns(uint){\n      return totalSupply;\n  }\n\n  function incTotalSupply(uint _val) public onlyModule returns(bool success){\n      totalSupply+=_val;\n      return true;\n  }\n\n  function decTotalSupply(uint _val) public onlyModule returns(bool success){\n      totalSupply-=_val;\n      return true;\n  }\n\n  /* Administration Functions */\n\n function empty(address payable _sendTo) public onlyRoot { if(!_sendTo.send(address(this).balance)) revert(); }\n function kill() public onlyRoot { selfdestruct(root); }\n function transferRoot(address payable _newOwner) public onlyRoot { root = _newOwner; }\n\n}\n",
  "sourcePath": "/Users/chris/Desktop/EXPvETH/eggswap/eggswap/contracts/erc644/Balances.sol",
  "compiler": {
    "name": "solc",
    "version": "0.6.12+commit.27d51765.Emscripten.clang"
  },
  "schemaVersion": "3.2.5",
  "updatedAt": "2020-10-06T00:11:54.703Z",
  "networkType": "ethereum",
  "devdoc": {
    "kind": "dev",
    "methods": {},
    "version": 1
  },
  "userdoc": {
    "kind": "user",
    "methods": {},
    "version": 1
  }
}