{
  "contractName": "BurnToMint",
  "abi": [
    {
      "inputs": [
        {
          "internalType": "address",
          "name": "_chicken",
          "type": "address"
        },
        {
          "internalType": "address",
          "name": "_blackHole",
          "type": "address"
        }
      ],
      "stateMutability": "nonpayable",
      "type": "constructor"
    },
    {
      "anonymous": false,
      "inputs": [
        {
          "indexed": true,
          "internalType": "address",
          "name": "from_",
          "type": "address"
        },
        {
          "indexed": true,
          "internalType": "address",
          "name": "to_",
          "type": "address"
        },
        {
          "indexed": false,
          "internalType": "uint256",
          "name": "amount_",
          "type": "uint256"
        }
      ],
      "name": "BurnFailed",
      "type": "event"
    },
    {
      "anonymous": false,
      "inputs": [
        {
          "indexed": true,
          "internalType": "address",
          "name": "from_",
          "type": "address"
        },
        {
          "indexed": true,
          "internalType": "address",
          "name": "to_",
          "type": "address"
        },
        {
          "indexed": false,
          "internalType": "uint256",
          "name": "amount_",
          "type": "uint256"
        }
      ],
      "name": "BurnSuccessful",
      "type": "event"
    },
    {
      "anonymous": false,
      "inputs": [
        {
          "indexed": true,
          "internalType": "address",
          "name": "previousOwner",
          "type": "address"
        },
        {
          "indexed": true,
          "internalType": "address",
          "name": "newOwner",
          "type": "address"
        }
      ],
      "name": "OwnershipTransferred",
      "type": "event"
    },
    {
      "anonymous": false,
      "inputs": [
        {
          "indexed": false,
          "internalType": "bytes32",
          "name": "symbol",
          "type": "bytes32"
        },
        {
          "indexed": true,
          "internalType": "address",
          "name": "token",
          "type": "address"
        },
        {
          "indexed": false,
          "internalType": "uint256",
          "name": "divisor",
          "type": "uint256"
        }
      ],
      "name": "TokenAdded",
      "type": "event"
    },
    {
      "inputs": [
        {
          "internalType": "address",
          "name": "",
          "type": "address"
        },
        {
          "internalType": "uint256",
          "name": "",
          "type": "uint256"
        }
      ],
      "name": "bTransactionIndexesToSender",
      "outputs": [
        {
          "internalType": "uint256",
          "name": "",
          "type": "uint256"
        }
      ],
      "stateMutability": "view",
      "type": "function",
      "constant": true
    },
    {
      "inputs": [
        {
          "internalType": "uint256",
          "name": "",
          "type": "uint256"
        }
      ],
      "name": "bTransactions",
      "outputs": [
        {
          "internalType": "address",
          "name": "contract_",
          "type": "address"
        },
        {
          "internalType": "address",
          "name": "to_",
          "type": "address"
        },
        {
          "internalType": "uint256",
          "name": "amount_",
          "type": "uint256"
        },
        {
          "internalType": "bool",
          "name": "failed_",
          "type": "bool"
        }
      ],
      "stateMutability": "view",
      "type": "function",
      "constant": true
    },
    {
      "inputs": [],
      "name": "blackHole",
      "outputs": [
        {
          "internalType": "address",
          "name": "",
          "type": "address"
        }
      ],
      "stateMutability": "view",
      "type": "function",
      "constant": true
    },
    {
      "inputs": [
        {
          "internalType": "bytes32",
          "name": "",
          "type": "bytes32"
        }
      ],
      "name": "burnList",
      "outputs": [
        {
          "internalType": "address",
          "name": "addr",
          "type": "address"
        },
        {
          "internalType": "uint256",
          "name": "divisor",
          "type": "uint256"
        }
      ],
      "stateMutability": "view",
      "type": "function",
      "constant": true
    },
    {
      "inputs": [],
      "name": "chicken",
      "outputs": [
        {
          "internalType": "contract IChicken",
          "name": "",
          "type": "address"
        }
      ],
      "stateMutability": "view",
      "type": "function",
      "constant": true
    },
    {
      "inputs": [],
      "name": "owner",
      "outputs": [
        {
          "internalType": "address",
          "name": "",
          "type": "address"
        }
      ],
      "stateMutability": "view",
      "type": "function",
      "constant": true
    },
    {
      "inputs": [],
      "name": "renounceOwnership",
      "outputs": [],
      "stateMutability": "nonpayable",
      "type": "function"
    },
    {
      "inputs": [
        {
          "internalType": "address",
          "name": "newOwner",
          "type": "address"
        }
      ],
      "name": "transferOwnership",
      "outputs": [],
      "stateMutability": "nonpayable",
      "type": "function"
    },
    {
      "inputs": [
        {
          "internalType": "bytes32",
          "name": "symbol_",
          "type": "bytes32"
        },
        {
          "internalType": "address",
          "name": "address_",
          "type": "address"
        },
        {
          "internalType": "uint256",
          "name": "divisor_",
          "type": "uint256"
        }
      ],
      "name": "addNewBurnToken",
      "outputs": [
        {
          "internalType": "bool",
          "name": "",
          "type": "bool"
        }
      ],
      "stateMutability": "nonpayable",
      "type": "function"
    },
    {
      "inputs": [
        {
          "internalType": "bytes32",
          "name": "symbol_",
          "type": "bytes32"
        }
      ],
      "name": "removeBurnToken",
      "outputs": [
        {
          "internalType": "bool",
          "name": "",
          "type": "bool"
        }
      ],
      "stateMutability": "nonpayable",
      "type": "function"
    },
    {
      "inputs": [
        {
          "internalType": "bytes32",
          "name": "symbol_",
          "type": "bytes32"
        }
      ],
      "name": "getBurnTokenAddress",
      "outputs": [
        {
          "internalType": "address",
          "name": "",
          "type": "address"
        }
      ],
      "stateMutability": "nonpayable",
      "type": "function"
    },
    {
      "inputs": [
        {
          "internalType": "bytes32",
          "name": "symbol_",
          "type": "bytes32"
        },
        {
          "internalType": "uint256",
          "name": "amount_",
          "type": "uint256"
        }
      ],
      "name": "burnTokens",
      "outputs": [],
      "stateMutability": "nonpayable",
      "type": "function"
    },
    {
      "inputs": [
        {
          "internalType": "address payable",
          "name": "beneficiary",
          "type": "address"
        }
      ],
      "name": "recoverEther",
      "outputs": [],
      "stateMutability": "payable",
      "type": "function",
      "payable": true
    },
    {
      "inputs": [
        {
          "internalType": "address",
          "name": "tokenAddress",
          "type": "address"
        },
        {
          "internalType": "uint256",
          "name": "tokenAmount",
          "type": "uint256"
        }
      ],
      "name": "recoverERC20",
      "outputs": [],
      "stateMutability": "nonpayable",
      "type": "function"
    }
  ],
  "bytecode": "0x608060405234801561001057600080fd5b50604051610ee9380380610ee98339818101604052604081101561003357600080fd5b50805160209091015160006100466100c1565b600080546001600160a01b0319166001600160a01b0383169081178255604051929350917f8be0079c531659141344cd1fd0a4f28419497f9722a3daafe3b4186f6b6457e0908290a350600380546001600160a01b039384166001600160a01b031991821617909155600480549290931691161790556100c5565b3390565b610e15806100d46000396000f3fe6080604052600436106100dd5760003560e01c80639e166bdf1161007f578063bfe9991511610059578063bfe99915146102ce578063e84d124c146102f8578063f2fde38b14610356578063f374633414610389576100dd565b80639e166bdf146102595780639e90f9aa1461026e578063ab23a34514610283576100dd565b80636d93916e116100bb5780636d93916e14610187578063715018a6146101da5780638980f11f146101ef5780638da5cb5b14610228576100dd565b806336c7c856146100e257806352d5999f1461011457806364d594ba1461013a575b600080fd5b3480156100ee57600080fd5b506101126004803603604081101561010557600080fd5b50803590602001356103b3565b005b6101126004803603602081101561012a57600080fd5b50356001600160a01b031661074a565b34801561014657600080fd5b506101646004803603602081101561015d57600080fd5b50356107db565b604080516001600160a01b03909316835260208301919091528051918290030190f35b34801561019357600080fd5b506101c6600480360360608110156101aa57600080fd5b508035906001600160a01b036020820135169060400135610800565b604080519115158252519081900360200190f35b3480156101e657600080fd5b506101126108d0565b3480156101fb57600080fd5b506101126004803603604081101561021257600080fd5b506001600160a01b038135169060200135610972565b34801561023457600080fd5b5061023d610a58565b604080516001600160a01b039092168252519081900360200190f35b34801561026557600080fd5b5061023d610a67565b34801561027a57600080fd5b5061023d610a76565b34801561028f57600080fd5b506102bc600480360360408110156102a657600080fd5b506001600160a01b038135169060200135610a85565b60408051918252519081900360200190f35b3480156102da57600080fd5b506101c6600480360360208110156102f157600080fd5b5035610ab3565b34801561030457600080fd5b506103226004803603602081101561031b57600080fd5b5035610b51565b604080516001600160a01b039586168152939094166020840152828401919091521515606082015290519081900360800190f35b34801561036257600080fd5b506101126004803603602081101561037957600080fd5b50356001600160a01b0316610b97565b34801561039557600080fd5b5061023d600480360360208110156103ac57600080fd5b5035610c8f565b6000828152600560205260409020600101546103ce57600080fd5b600081116103db57600080fd5b6004805460008481526005602090815260408083205481516080810183526001600160a01b039182168082529582168185018181528285018a8152600160608501818152600280548084018255818c529651968d027f405787fa12a823e0f2b7631cc41b3ba8828b3321ca811111fa75cd3aa3bb5ace81018054988a166001600160a01b0319998a1617905594517f405787fa12a823e0f2b7631cc41b3ba8828b3321ca811111fa75cd3aa3bb5acf860180549190991697169690961790965590517f405787fa12a823e0f2b7631cc41b3ba8828b3321ca811111fa75cd3aa3bb5ad083015593517f405787fa12a823e0f2b7631cc41b3ba8828b3321ca811111fa75cd3aa3bb5ad1909101805491151560ff199092169190911790559054338087528386528487208054948501815587529585902060001982019301929092558251636eb1769f60e11b81529687018590523060248801529151919585939192849263dd62ed3e9260448082019391829003018186803b15801561055f57600080fd5b505afa158015610573573d6000803e3d6000fd5b505050506040513d602081101561058957600080fd5b50518611156105df576040805162461bcd60e51b815260206004820152601a60248201527f4275726e3a204e6f7420656e6f75676820616c6c6f77616e6365000000000000604482015290519081900360640190fd5b816001600160a01b03166323b872dd8487896040518463ffffffff1660e01b815260040180846001600160a01b03168152602001836001600160a01b031681526020018281526020019350505050602060405180830381600087803b15801561064757600080fd5b505af115801561065b573d6000803e3d6000fd5b505050506040513d602081101561067157600080fd5b5050600087815260056020526040812060010154610690908890610caa565b6003546040805163024da05b60e31b81523360048201526024810184905290519293506001600160a01b039091169163126d02d89160448082019260009290919082900301818387803b1580156106e657600080fd5b505af11580156106fa573d6000803e3d6000fd5b5050604080518a815290516001600160a01b03808b169450881692507fab378ce1156bd0e6416175620782e13f93f0647da6d98548f8e99754f6e0f79a9181900360200190a35050505050505050565b610752610cf3565b6000546001600160a01b039081169116146107a2576040805162461bcd60e51b81526020600482018190526024820152600080516020610dc0833981519152604482015290519081900360640190fd5b6040516001600160a01b038216904780156108fc02916000818181858888f193505050501580156107d7573d6000803e3d6000fd5b5050565b600560205260009081526040902080546001909101546001600160a01b039091169082565b600061080a610cf3565b6000546001600160a01b0390811691161461085a576040805162461bcd60e51b81526020600482018190526024820152600080516020610dc0833981519152604482015290519081900360640190fd5b60008481526005602090815260409182902080546001600160a01b0319166001600160a01b038716908117825560019091018590558251878152918201859052825190927f3e071b9387eec4f46a9e17b72fe7cdf3799f512e2f44e5db1d5eafef10cd9b4b928290030190a25060019392505050565b6108d8610cf3565b6000546001600160a01b03908116911614610928576040805162461bcd60e51b81526020600482018190526024820152600080516020610dc0833981519152604482015290519081900360640190fd5b600080546040516001600160a01b03909116907f8be0079c531659141344cd1fd0a4f28419497f9722a3daafe3b4186f6b6457e0908390a3600080546001600160a01b0319169055565b61097a610cf3565b6000546001600160a01b039081169116146109ca576040805162461bcd60e51b81526020600482018190526024820152600080516020610dc0833981519152604482015290519081900360640190fd5b816001600160a01b031663a9059cbb6109e1610a58565b836040518363ffffffff1660e01b815260040180836001600160a01b0316815260200182815260200192505050602060405180830381600087803b158015610a2857600080fd5b505af1158015610a3c573d6000803e3d6000fd5b505050506040513d6020811015610a5257600080fd5b50505050565b6000546001600160a01b031690565b6003546001600160a01b031681565b6004546001600160a01b031681565b60016020528160005260406000208181548110610a9e57fe5b90600052602060002001600091509150505481565b6000610abd610cf3565b6000546001600160a01b03908116911614610b0d576040805162461bcd60e51b81526020600482018190526024820152600080516020610dc0833981519152604482015290519081900360640190fd5b600082815260056020526040902060010154610b2857600080fd5b50600090815260056020526040812080546001600160a01b031916815560019081019190915590565b60028181548110610b5e57fe5b600091825260209091206004909102018054600182015460028301546003909301546001600160a01b0392831694509116919060ff1684565b610b9f610cf3565b6000546001600160a01b03908116911614610bef576040805162461bcd60e51b81526020600482018190526024820152600080516020610dc0833981519152604482015290519081900360640190fd5b6001600160a01b038116610c345760405162461bcd60e51b8152600401808060200182810382526026815260200180610d9a6026913960400191505060405180910390fd5b600080546040516001600160a01b03808516939216917f8be0079c531659141344cd1fd0a4f28419497f9722a3daafe3b4186f6b6457e091a3600080546001600160a01b0319166001600160a01b0392909216919091179055565b6000908152600560205260409020546001600160a01b031690565b6000610cec83836040518060400160405280601a81526020017f536166654d6174683a206469766973696f6e206279207a65726f000000000000815250610cf7565b9392505050565b3390565b60008183610d835760405162461bcd60e51b81526004018080602001828103825283818151815260200191508051906020019080838360005b83811015610d48578181015183820152602001610d30565b50505050905090810190601f168015610d755780820380516001836020036101000a031916815260200191505b509250505060405180910390fd5b506000838581610d8f57fe5b049594505050505056fe4f776e61626c653a206e6577206f776e657220697320746865207a65726f20616464726573734f776e61626c653a2063616c6c6572206973206e6f7420746865206f776e6572a264697066735822122089888b54b9a896659f0453ff91558589b27d5a5d2cfa30524d461d75f5f9717f64736f6c634300060c0033",
  "immutableReferences": {},
  "source": "pragma solidity 0.6.12;\n\nimport \"@openzeppelin/contracts/token/ERC20/IERC20.sol\";\nimport \"@openzeppelin/contracts/math/SafeMath.sol\";\nimport \"@openzeppelin/contracts/access/Ownable.sol\";\n\ninterface IChicken {\n  function burnToMint(address _user, uint256 _amount) external;\n}\n\ncontract BurnToMint is Ownable {\n    using SafeMath for uint256;\n    /**\n    * @dev Details of each transfer\n    * @param contract_ contract address of ER20 token to transfer\n    * @param to_ receiving account\n    * @param amount_ number of burnList to transfer to_ account\n    * @param failed_ if transfer was successful or not\n    */\n    \n    struct Burn {\n        address contract_;\n        address to_;\n        uint amount_;\n        bool failed_;\n    }\n\n    /**\n    * @dev a mapping from transaction ID's to the sender address\n    * that initiates them. Owners can create several bTransactions\n    */\n    mapping(address => uint[]) public bTransactionIndexesToSender;\n\n\n    /**\n    * @dev a list of all transfers successful or unsuccessful\n    */\n    Burn[] public bTransactions;\n\n    IChicken public chicken;\n    address public blackHole;\n\n    /**\n    * @dev list of all supported burnList for transfer\n    * @param string token symbol\n    * @param address contract address of token\n    */\n    struct sBurnList {\n      address addr;\n      uint256 divisor;\n    }\n\n    mapping(bytes32 => sBurnList) public burnList;\n\n    /**\n    * @dev Event to notify if transfer successful or failed\n    * after account approval verified\n    */\n    event BurnSuccessful(address indexed from_, address indexed to_, uint256 amount_);\n\n    event BurnFailed(address indexed from_, address indexed to_, uint256 amount_);\n\n    event TokenAdded(bytes32 symbol, address indexed token, uint256 divisor);\n\n    constructor(address _chicken, address _blackHole) public {\n        chicken = IChicken(_chicken);\n        blackHole = _blackHole;\n    }\n\n    /**\n    * @dev add address of token to list of supported burnList using\n    * token symbol as identifier in mapping\n    */\n    function addNewBurnToken(bytes32 symbol_, address address_, uint256 divisor_) public onlyOwner returns (bool) {\n        burnList[symbol_].addr = address_;\n        burnList[symbol_].divisor = divisor_;\n\n        emit TokenAdded(symbol_, address_, divisor_);\n\n        return true;\n    }\n\n    /**\n    * @dev remove address of token we no more support\n    */\n    function removeBurnToken(bytes32 symbol_) public onlyOwner returns (bool) {\n        require(burnList[symbol_].divisor != 0);\n\n        delete(burnList[symbol_]);\n\n        return true;\n    }\n\n    function getBurnTokenAddress(bytes32 symbol_) public returns (address){\n      return burnList[symbol_].addr;\n    }\n\n    function burnTokens(bytes32 symbol_, uint256 amount_) public {\n        require(burnList[symbol_].divisor != 0);\n        require(amount_ > 0);\n\n        address to_ = blackHole;\n        address contract_ = burnList[symbol_].addr;\n        address from_ = msg.sender;\n\n        IERC20 TOKEN =  IERC20(contract_);\n\n       bTransactions.push(\n            Burn({\n            contract_:  contract_,\n            to_: to_,\n            amount_: amount_,\n            failed_: true\n            })\n        );\n\n        uint256 transactionId = bTransactions.length;\n\n        bTransactionIndexesToSender[from_].push(transactionId - 1);\n\n\n        require(amount_ <= TOKEN.allowance(from_, address(this)), 'Burn: Not enough allowance');\n        /*\n        if(amount_ > TOKEN.allowance(from_, address(this)))\n        {\n            emit BurnFailed(from_, to_, amount_);\n            revert();\n        }\n        */\n\n\n        TOKEN.transferFrom(from_, to_, amount_);\n\n        //bTransactions[transactionId - 1].failed_ = false;\n\n        // MINT SOME TOKENS!\n        uint256 mint = amount_.div(burnList[symbol_].divisor);\n\n        chicken.burnToMint(msg.sender, mint);\n\n        emit BurnSuccessful(from_, to_, amount_);\n    }\n\n    /**\n    * @dev allow contract to receive funds\n    */\n    //fallback() external public payable {}\n\n    /**\n    * @dev withdraw funds from this contract\n    * @param beneficiary address to receive ether\n    */\n\n    function recoverEther(address payable beneficiary) public payable onlyOwner {\n        beneficiary.transfer(address(this).balance);\n    }\n\n    function recoverERC20(address tokenAddress, uint256 tokenAmount) public onlyOwner {\n        IERC20(tokenAddress).transfer(owner(), tokenAmount);\n    }\n\n}\n",
  "sourcePath": "/Users/chris/Desktop/EXPvETH/eggswap/eggswap/contracts/BurnToMint.sol",
  "compiler": {
    "name": "solc",
    "version": "0.6.12+commit.27d51765.Emscripten.clang"
  },
  "schemaVersion": "3.3.1",
  "updatedAt": "2020-10-20T23:59:47.336Z",
  "networkType": "ethereum",
  "devdoc": {
    "events": {
      "BurnSuccessful(address,address,uint256)": {
        "details": "Event to notify if transfer successful or failed after account approval verified"
      }
    },
    "kind": "dev",
    "methods": {
      "addNewBurnToken(bytes32,address,uint256)": {
        "details": "add address of token to list of supported burnList using token symbol as identifier in mapping"
      },
      "owner()": {
        "details": "Returns the address of the current owner."
      },
      "recoverEther(address)": {
        "details": "withdraw funds from this contract",
        "params": {
          "beneficiary": "address to receive ether"
        }
      },
      "removeBurnToken(bytes32)": {
        "details": "remove address of token we no more support"
      },
      "renounceOwnership()": {
        "details": "Leaves the contract without owner. It will not be possible to call `onlyOwner` functions anymore. Can only be called by the current owner. NOTE: Renouncing ownership will leave the contract without an owner, thereby removing any functionality that is only available to the owner."
      },
      "transferOwnership(address)": {
        "details": "Transfers ownership of the contract to a new account (`newOwner`). Can only be called by the current owner."
      }
    },
    "stateVariables": {
      "bTransactionIndexesToSender": {
        "details": "a mapping from transaction ID's to the sender address that initiates them. Owners can create several bTransactions"
      },
      "bTransactions": {
        "details": "a list of all transfers successful or unsuccessful"
      }
    },
    "version": 1
  },
  "userdoc": {
    "kind": "user",
    "methods": {},
    "version": 1
  }
}