{
  "contractName": "ERC644",
  "abi": [
    {
      "inputs": [
        {
          "internalType": "address",
          "name": "_balances",
          "type": "address"
        },
        {
          "internalType": "string",
          "name": "_name",
          "type": "string"
        },
        {
          "internalType": "string",
          "name": "_symbol",
          "type": "string"
        }
      ],
      "stateMutability": "nonpayable",
      "type": "constructor"
    },
    {
      "anonymous": false,
      "inputs": [
        {
          "indexed": true,
          "internalType": "address",
          "name": "_owner",
          "type": "address"
        },
        {
          "indexed": true,
          "internalType": "address",
          "name": "_spender",
          "type": "address"
        },
        {
          "indexed": false,
          "internalType": "uint256",
          "name": "_value",
          "type": "uint256"
        }
      ],
      "name": "Approval",
      "type": "event"
    },
    {
      "anonymous": false,
      "inputs": [
        {
          "indexed": true,
          "internalType": "address",
          "name": "_from",
          "type": "address"
        },
        {
          "indexed": true,
          "internalType": "address",
          "name": "_to",
          "type": "address"
        },
        {
          "indexed": false,
          "internalType": "uint256",
          "name": "_value",
          "type": "uint256"
        }
      ],
      "name": "Transfer",
      "type": "event"
    },
    {
      "inputs": [],
      "name": "balances",
      "outputs": [
        {
          "internalType": "contract Balances",
          "name": "",
          "type": "address"
        }
      ],
      "stateMutability": "view",
      "type": "function",
      "constant": true
    },
    {
      "inputs": [],
      "name": "decimals",
      "outputs": [
        {
          "internalType": "uint8",
          "name": "",
          "type": "uint8"
        }
      ],
      "stateMutability": "view",
      "type": "function",
      "constant": true
    },
    {
      "inputs": [],
      "name": "name",
      "outputs": [
        {
          "internalType": "string",
          "name": "",
          "type": "string"
        }
      ],
      "stateMutability": "view",
      "type": "function",
      "constant": true
    },
    {
      "inputs": [],
      "name": "symbol",
      "outputs": [
        {
          "internalType": "string",
          "name": "",
          "type": "string"
        }
      ],
      "stateMutability": "view",
      "type": "function",
      "constant": true
    },
    {
      "inputs": [
        {
          "internalType": "address",
          "name": "_to",
          "type": "address"
        },
        {
          "internalType": "uint256",
          "name": "_value",
          "type": "uint256"
        }
      ],
      "name": "transfer",
      "outputs": [
        {
          "internalType": "bool",
          "name": "success",
          "type": "bool"
        }
      ],
      "stateMutability": "nonpayable",
      "type": "function"
    },
    {
      "inputs": [
        {
          "internalType": "address",
          "name": "_from",
          "type": "address"
        },
        {
          "internalType": "address",
          "name": "_to",
          "type": "address"
        },
        {
          "internalType": "uint256",
          "name": "_value",
          "type": "uint256"
        }
      ],
      "name": "transferFrom",
      "outputs": [
        {
          "internalType": "bool",
          "name": "success",
          "type": "bool"
        }
      ],
      "stateMutability": "nonpayable",
      "type": "function"
    },
    {
      "inputs": [
        {
          "internalType": "address",
          "name": "_owner",
          "type": "address"
        }
      ],
      "name": "balanceOf",
      "outputs": [
        {
          "internalType": "uint256",
          "name": "balance",
          "type": "uint256"
        }
      ],
      "stateMutability": "view",
      "type": "function",
      "constant": true
    },
    {
      "inputs": [
        {
          "internalType": "address",
          "name": "_spender",
          "type": "address"
        },
        {
          "internalType": "uint256",
          "name": "_value",
          "type": "uint256"
        }
      ],
      "name": "approve",
      "outputs": [
        {
          "internalType": "bool",
          "name": "success",
          "type": "bool"
        }
      ],
      "stateMutability": "nonpayable",
      "type": "function"
    },
    {
      "inputs": [
        {
          "internalType": "address",
          "name": "_owner",
          "type": "address"
        },
        {
          "internalType": "address",
          "name": "_spender",
          "type": "address"
        }
      ],
      "name": "allowance",
      "outputs": [
        {
          "internalType": "uint256",
          "name": "remaining",
          "type": "uint256"
        }
      ],
      "stateMutability": "view",
      "type": "function",
      "constant": true
    },
    {
      "inputs": [],
      "name": "totalSupply",
      "outputs": [
        {
          "internalType": "uint256",
          "name": "",
          "type": "uint256"
        }
      ],
      "stateMutability": "view",
      "type": "function",
      "constant": true
    }
  ],
  "bytecode": "0x60806040523480156200001157600080fd5b5060405162000d9838038062000d98833981810160405260608110156200003757600080fd5b8151602083018051604051929492938301929190846401000000008211156200005f57600080fd5b9083019060208201858111156200007557600080fd5b82516401000000008111828201881017156200009057600080fd5b82525081516020918201929091019080838360005b83811015620000bf578181015183820152602001620000a5565b50505050905090810190601f168015620000ed5780820380516001836020036101000a031916815260200191505b50604052602001805160405193929190846401000000008211156200011157600080fd5b9083019060208201858111156200012757600080fd5b82516401000000008111828201881017156200014257600080fd5b82525081516020918201929091019080838360005b838110156200017157818101518382015260200162000157565b50505050905090810190601f1680156200019f5780820380516001836020036101000a031916815260200191505b506040525050600080546001600160a01b0319166001600160a01b038616179055508151620001d690600190602085019062000203565b506002805460ff191660121790558051620001f990600390602084019062000203565b505050506200029f565b828054600181600116156101000203166002900490600052602060002090601f016020900481019282601f106200024657805160ff191683800117855562000276565b8280016001018555821562000276579182015b828111156200027657825182559160200191906001019062000259565b506200028492915062000288565b5090565b5b8082111562000284576000815560010162000289565b610ae980620002af6000396000f3fe608060405234801561001057600080fd5b506004361061009e5760003560e01c806370a082311161006657806370a08231146101ce5780637bb98a68146101f457806395d89b4114610218578063a9059cbb14610220578063dd62ed3e1461024c5761009e565b806306fdde03146100a3578063095ea7b31461012057806318160ddd1461016057806323b872dd1461017a578063313ce567146101b0575b600080fd5b6100ab61027a565b6040805160208082528351818301528351919283929083019185019080838360005b838110156100e55781810151838201526020016100cd565b50505050905090810190601f1680156101125780820380516001836020036101000a031916815260200191505b509250505060405180910390f35b61014c6004803603604081101561013657600080fd5b506001600160a01b038135169060200135610307565b604080519115158252519081900360200190f35b6101686103d8565b60408051918252519081900360200190f35b61014c6004803603606081101561019057600080fd5b506001600160a01b03813581169160208101359091169060400135610458565b6101b8610766565b6040805160ff9092168252519081900360200190f35b610168600480360360208110156101e457600080fd5b50356001600160a01b031661076f565b6101fc6107ef565b604080516001600160a01b039092168252519081900360200190f35b6100ab6107fe565b61014c6004803603604081101561023657600080fd5b506001600160a01b038135169060200135610859565b6101686004803603604081101561026257600080fd5b506001600160a01b0381358116916020013516610a2a565b60018054604080516020600284861615610100026000190190941693909304601f810184900484028201840190925281815292918301828280156102ff5780601f106102d4576101008083540402835291602001916102ff565b820191906000526020600020905b8154815290600101906020018083116102e257829003601f168201915b505050505081565b600080546040805163247bc52d60e21b81523360048201526001600160a01b03868116602483015260448201869052915191909216916391ef14b491606480830192602092919082900301818787803b15801561036357600080fd5b505af1158015610377573d6000803e3d6000fd5b505050506040513d602081101561038d57600080fd5b50506040805183815290516001600160a01b0385169133917f8c5be1e5ebec7d5bd14f71427d1e84f3dd0314c0f7b2291e5b200ac8c7c3b9259181900360200190a350600192915050565b60008060009054906101000a90046001600160a01b03166001600160a01b031663c4e41b226040518163ffffffff1660e01b815260040160206040518083038186803b15801561042757600080fd5b505afa15801561043b573d6000803e3d6000fd5b505050506040513d602081101561045157600080fd5b5051905090565b6000805460408051630af4187d60e01b81526001600160a01b038781166004830152336024830152915184939290921691630af4187d91604480820192602092909190829003018186803b1580156104af57600080fd5b505afa1580156104c3573d6000803e3d6000fd5b505050506040513d60208110156104d957600080fd5b50516000546040805163f8b2cb4f60e01b81526001600160a01b03898116600483015291519394508693919092169163f8b2cb4f916024808301926020929190829003018186803b15801561052d57600080fd5b505afa158015610541573d6000803e3d6000fd5b505050506040513d602081101561055757600080fd5b5051108015906105675750828110155b61057057600080fd5b60008054604080516366e7ea0f60e01b81526001600160a01b03888116600483015260248201889052915191909216926366e7ea0f92604480820193602093909283900390910190829087803b1580156105c957600080fd5b505af11580156105dd573d6000803e3d6000fd5b505050506040513d60208110156105f357600080fd5b5050600080546040805163aba0085960e01b81526001600160a01b038981166004830152602482018890529151919092169263aba0085992604480820193602093909283900390910190829087803b15801561064e57600080fd5b505af1158015610662573d6000803e3d6000fd5b505050506040513d602081101561067857600080fd5b505060001981101561071057600080546040805163fcfdf7c560e01b81526001600160a01b038981166004830152336024830152604482018890529151919092169263fcfdf7c592606480820193602093909283900390910190829087803b1580156106e357600080fd5b505af11580156106f7573d6000803e3d6000fd5b505050506040513d602081101561070d57600080fd5b50505b836001600160a01b0316856001600160a01b03167fddf252ad1be2c89b69c2b068fc378daa952ba7f163c4a11628f55a4df523b3ef856040518082815260200191505060405180910390a3506001949350505050565b60025460ff1681565b600080546040805163f8b2cb4f60e01b81526001600160a01b0385811660048301529151919092169163f8b2cb4f916024808301926020929190829003018186803b1580156107bd57600080fd5b505afa1580156107d1573d6000803e3d6000fd5b505050506040513d60208110156107e757600080fd5b505192915050565b6000546001600160a01b031681565b6003805460408051602060026001851615610100026000190190941693909304601f810184900484028201840190925281815292918301828280156102ff5780601f106102d4576101008083540402835291602001916102ff565b600080546040805163f8b2cb4f60e01b8152336004820152905184926001600160a01b03169163f8b2cb4f916024808301926020929190829003018186803b1580156108a457600080fd5b505afa1580156108b8573d6000803e3d6000fd5b505050506040513d60208110156108ce57600080fd5b505110156108db57600080fd5b600080546040805163aba0085960e01b81523360048201526024810186905290516001600160a01b039092169263aba00859926044808401936020939083900390910190829087803b15801561093057600080fd5b505af1158015610944573d6000803e3d6000fd5b505050506040513d602081101561095a57600080fd5b505060008054604080516366e7ea0f60e01b81526001600160a01b03878116600483015260248201879052915191909216926366e7ea0f92604480820193602093909283900390910190829087803b1580156109b557600080fd5b505af11580156109c9573d6000803e3d6000fd5b505050506040513d60208110156109df57600080fd5b50506040805183815290516001600160a01b0385169133917fddf252ad1be2c89b69c2b068fc378daa952ba7f163c4a11628f55a4df523b3ef9181900360200190a350600192915050565b6000805460408051630af4187d60e01b81526001600160a01b038681166004830152858116602483015291519190921691630af4187d916044808301926020929190829003018186803b158015610a8057600080fd5b505afa158015610a94573d6000803e3d6000fd5b505050506040513d6020811015610aaa57600080fd5b5051939250505056fea264697066735822122009dc7f364368b6908077fa42537009de3464b0230b0e88bbc0d66a67397990cb64736f6c634300060c0033",
  "immutableReferences": {},
  "source": "/*\nImplements modular EIP20 token standard ERC644: https://github.com/ethereum/EIPs/blob/master/EIPS/eip-20.md\n.*/\n\n\npragma solidity >=0.4.21;\n\nimport\"./Balances.sol\";\n\ncontract ERC644 {\n\n    // solhint-disable-next-line no-simple-event-func-name\n    event Transfer(address indexed _from, address indexed _to, uint256 _value);\n    event Approval(address indexed _owner, address indexed _spender, uint256 _value);\n\n    uint256 constant private MAX_UINT256 = 2**256 - 1;\n\n    Balances public balances;\n\n    string public name;                   //fancy name: eg Franko Bucks\n    uint8 public decimals;                //How many decimals to show.\n    string public symbol;                 //An identifier: eg FRK\n\n    constructor(address _balances, string memory _name, string memory _symbol) public {\n        balances = Balances(_balances);\n\n        name = _name;                                   // Set the name for display purposes\n        decimals = 18;                            // Amount of decimals for display purposes\n        symbol = _symbol;                               // Set the symbol for display purposes\n    }\n\n    function transfer(address _to, uint256 _value) public returns (bool success) {\n        require(balances.getBalance(msg.sender) >= _value);\n        balances.decBalance(msg.sender, _value);\n        balances.incBalance(_to, _value);\n        emit Transfer(msg.sender, _to, _value); //solhint-disable-line indent, no-unused-vars\n        return true;\n    }\n\n    function transferFrom(address _from, address _to, uint256 _value) public returns (bool success) {\n        uint256 allowance = balances.getAllowance(_from, msg.sender);\n        require(balances.getBalance(_from) >= _value && allowance >= _value);\n        balances.incBalance(_to, _value);\n        balances.decBalance(_from, _value);\n        if (allowance < MAX_UINT256) {\n            balances.decApprove(_from, msg.sender, _value);\n        }\n        emit Transfer(_from, _to, _value); //solhint-disable-line indent, no-unused-vars\n        return true;\n    }\n\n    function balanceOf(address _owner) public view returns (uint256 balance) {\n        return balances.getBalance(_owner);\n    }\n\n    function approve(address _spender, uint256 _value) public returns (bool success) {\n      //allowed[msg.sender][_spender] = _value;\n      balances.setApprove(msg.sender, _spender, _value);\n      emit Approval(msg.sender, _spender, _value);\n      return true;\n    }\n\n    function allowance(address _owner, address _spender) public view returns (uint256 remaining) {\n      return balances.getAllowance(_owner, _spender);\n    }\n\n    function totalSupply() public view returns(uint256){\n      return balances.getTotalSupply();\n    }\n}\n",
  "sourcePath": "/Users/chris/Desktop/EXPvETH/eggswap/eggswap/contracts/erc644/ERC644.sol",
  "compiler": {
    "name": "solc",
    "version": "0.6.12+commit.27d51765.Emscripten.clang"
  },
  "schemaVersion": "3.2.5",
  "updatedAt": "2020-10-03T21:12:29.452Z",
  "networkType": "ethereum",
  "devdoc": {
    "kind": "dev",
    "methods": {},
    "version": 1
  },
  "userdoc": {
    "kind": "user",
    "methods": {},
    "version": 1
  }
}